:020000040800F2
:100000000840002045010008F5030008A10300088E
:10001000F10300088D0100087505000800000000CC
:1000200000000000000000000000000019040008AB
:100030009101000800000000F70300080505000812
:100040005F0100085F0100085F0100085F01000810
:100050005F0100085F0100085F0100085F01000800
:100060005F0100085F0100085F0100085F010008F0
:100070005F0100085F0100085F0100085F010008E0
:100080005F0100085F0100085F0100085F010008D0
:100090005F0100085F0100085F0100085F010008C0
:1000A0005F0100085F0100085F0100085F010008B0
:1000B0005F0100085F0100085F0100085F010008A0
:1000C0005F0100085F0100085F0100085F01000890
:1000D0005F0100085F0100085F0100085F01000880
:1000E0005F0100085F0100085F0100085F01000870
:1000F0005F0100085F0100085F0100085F01000860
:100100005F0100085F0100085F0100085F0100084F
:100110005F0100085F0100085F0100085F0100083F
:100120005F0100085F0100085F0100085F0100082F
:10013000DFF80CD000F018F80048004799050008D7
:10014000084000200648804706480047FEE7FEE7D3
:10015000FEE7FEE7FEE7FEE7FEE7FEE7FEE7FEE777
:100160001505000831010008064C074D06E0E0685F
:1001700040F0010394E8070098471034AC42F6D3EE
:10018000FFF7DAFFBC050008DC05000800BFFEE74A
:100190007047000030B51449481EB0F1807F01D38C
:1001A00001201BE0481E4FF0E022506150170F2243
:1001B000002804DB13071C0E0C4B1C5406E013072D
:1001C0001D0E0B4B00F00F04241F1D5500BF002017
:1001D0004FF0E0229061072010610020012801D13A
:1001E00000BFFEE730BD00004019010000E400E060
:1001F00018ED00E02DE9F041024600250026002020
:1002000000230024002791F803C00CF00F0591F89B
:1002100003C00CF0100CBCF1000F03D091F802C029
:100220004CEA050591F800C0BCF1000F31D014680C
:1002300000202BE04FF0010C0CFA00F3B1F800C0E5
:100240000CEA03069E4220D183004FF00F0C0CFAFB
:1002500003F7BC4305FA03FC4CEA040491F803C01D
:10026000BCF1280F06D14FF0010C0CFA00FCC2F8CB
:1002700014C00AE091F803C0BCF1480F05D14FF05B
:10028000010C0CFA00FCC2F810C0401C0828D1D3A5
:100290001460B1F800C0BCF1FF0F34DD54680020D9
:1002A0002EE000F1080C4FF0010808FA0CF3B1F849
:1002B00000C00CEA03069E4221D183004FF00F0CD0
:1002C0000CFA03F7BC4305FA03FC4CEA040491F86A
:1002D00003C0BCF1280F05D100F1080C08FA0CF896
:1002E000C2F8148091F803C0BCF1480F07D100F1A7
:1002F000080C4FF0010808FA0CF8C2F81080401CF6
:100300000828CED35460BDE8F0810000F0B50A465D
:10031000002300240021002500F00046B6F1004F24
:1003200002D11D4EF16901E01B4E7168C0F3034517
:1003300083B200F44016B6F5401F08D121F0706179
:10034000154E766826F07066134F7E6012E000F45A
:100350008016B6F5801F06D1032606FA05F4A143E0
:1003600041F0706106E0460D360103FA06F6B1432E
:1003700041F0706122B1460D360103FA06F63143B1
:1003800000F00046B6F1004F02D1034EF16101E0EA
:10039000014E7160F0BD0000000001400161704736
:1003A00000BFFEE708B50121402000F025F810202D
:1003B0008DF803003C20ADF8000003208DF802000A
:1003C00069460A48FFF716FF04210848FFF7E6FFD1
:1003D00008210648FFF7E2FF10210448FFF7DEFF7F
:1003E00020210248FFF7DAFF08BD00000018014095
:1003F00000BFFEE77047704729B1064A9269024381
:10040000044B9A6104E0034A92698243014B9A616A
:100410007047000000100240704710B500F002F86D
:1004200010BD00000CB5002001900090334800681A
:1004300040F480303149086000BF3048006800F463
:10044000003000900198401C0190009818B9019864
:10045000B0F5A06FF1D12948006800F4003010B168
:100460000120009001E0002000900098012843D175
:100470002348006840F010002149086008460068E1
:1004800020F0030008600846006840F002000860A1
:100490001A4840681949486008464068486008465C
:1004A000406840F4806048600846406820F47C1052
:1004B00048600846406840F4E81048600846006814
:1004C00040F08070086000BF0C48006800F00070C9
:1004D0000028F9D00948406820F003000749486027
:1004E0000846406840F00200486000BF034840688A
:1004F00000F00C000828F9D10CBD000000100240EB
:100500000020024002480068401C01490860704712
:100510000000002010B51348006840F001001149A8
:10052000086008464068104908400E49486008467F
:1005300000680E4908400B4908600846006820F42E
:10054000802008600846406820F4FE0048604FF4B0
:100550001F008860FFF761FF4FF0006004490860EA
:1005600010BD0000001002400000FFF8FFFFF6FE83
:1005700008ED00E000BFFEE702E008C8121F08C156
:10058000002AFAD170477047002001E001C1121F14
:10059000002AFBD17047000000BF01210846FFF789
:1005A0002BFF01210448FFF7B1FE00BFFFF7F2FD6A
:1005B000FFF7F8FE00BFFEE700023000DC05000890
:1005C000000000200400000078050008E005000895
:1005D000040000200440000088050008000000001E
:0400000508000131BD
:00000001FF
