:020000040800F2
:1000000008040020010100088D03000819030008FE
:1000100089030008490100080D07000800000000DE
:10002000000000000000000000000000590500086A
:100030004D010008000000008F0300084906000879
:100040001B0100081B0100081B0100081B01000820
:100050001B0100081B0100081B0100081B01000810
:100060001B0100081B0100081B0100081B01000800
:100070001B0100081B0100081B0100081B010008F0
:100080001B0100081B0100081B0100081B010008E0
:100090001B0100081B0100081B0100081B010008D0
:1000A0001B0100081B0100081B0100081B010008C0
:1000B0001B0100081B010008000000001B010008D4
:1000C0001B01000800000000000000001B010008E8
:1000D000000000001B0100081B01000800000000D8
:1000E0001B0100081B0100081B010008DFF80CD0F1
:1000F00000F018F800480047310700080804002005
:100100000648804706480047FEE7FEE7FEE7FEE7B1
:10011000FEE7FEE7FEE7FEE7FEE7FEE7AD060008C6
:10012000ED000008064C074D06E0E06840F00103D2
:1001300094E8070098471034AC42F6D3FFF7DAFF93
:1001400084070008A407000800BFFEE7704700000E
:10015000044A1268111800BF024A12688A42FBD38F
:1001600070470000000000202DE9F0410246002504
:100170000026002000230024002791F803C00CF083
:100180000F0591F803C00CF0100CBCF1000F03D068
:1001900091F802C04CEA050591F800C0BCF1000FCF
:1001A00031D0146800202BE04FF0010C0CFA00F362
:1001B000B1F800C00CEA03069E4220D183004FF044
:1001C0000F0C0CFA03F7BC4305FA03FC4CEA0404D9
:1001D00091F803C0BCF1280F06D14FF0010C0CFAC6
:1001E00000FCC2F814C00AE091F803C0BCF1480F4B
:1001F00005D14FF0010C0CFA00FCC2F810C0401CF5
:100200000828D1D31460B1F800C0BCF1FF0F34DD71
:10021000546800202EE000F1080C4FF0010808FAA5
:100220000CF3B1F800C00CEA03069E4221D1830012
:100230004FF00F0C0CFA03F7BC4305FA03FC4CEA31
:10024000040491F803C0BCF1280F05D100F1080C9B
:1002500008FA0CF8C2F8148091F803C0BCF1480FFA
:1002600007D100F1080C4FF0010808FA0CF8C2F8A9
:100270001080401C0828CED35460BDE8F0810000F7
:10028000F0B50A46002300240021002500F00046B6
:10029000B6F1004F02D11D4EF16901E01B4E7168AD
:1002A000C0F3034583B200F44016B6F5401F08D1F1
:1002B00021F07061154E766826F07066134F7E60EF
:1002C00012E000F48016B6F5801F06D1032606FA68
:1002D00005F4A14341F0706106E0460D360103FAD2
:1002E00006F6B14341F0706122B1460D360103FAC2
:1002F00006F6314300F00046B6F1004F02D1034E3E
:10030000F16101E0014E7160F0BD000000000140AC
:10031000416170470161704700BFFEE710B50121E0
:10032000084600F041F801210148FFF7A9FF10BD80
:100330000004300010B54FF480710248FFF7EAFF67
:1003400010BD00000010014010B54FF4807102484C
:10035000FFF7DEFF10BD00000010014008B50121CD
:10036000102000F021F810208DF803000001ADF8F6
:10037000000003208DF8020069460248FFF7F4FEF2
:1003800008BD00000010014000BFFEE77047704745
:1003900001460020034A506820F440400843506062
:1003A000704700000010024029B1064A92690243DA
:1003B000044B9A6104E0034A92698243014B9A61BB
:1003C000704700000010024010B500F02FF8012027
:1003D00000F084F800BF212000F04EF80028FAD089
:1003E000002000F06FF84FF4806000F07DF80020EE
:1003F00000F086F84FF48040FFF7CAFF4FF4001179
:10040000002000F08FF8012000F086F800BF3920AE
:1004100000F032F80028FAD0022000F091F800BF76
:1004200000F048F80828FBD110BD00000F48006814
:1004300040F001000D490860084640680C4908403A
:100440000A494860084600680A49084007490860A8
:100450000846006820F4802008600846406820F4C0
:10046000FE0048604FF41F00886070470010024093
:100470000000FFF8FFFFF6FE10B501460022002342
:1004800000204A11012A02D1094C236806E0022A01
:1004900002D1074C236A01E0054C636A01F01F0298
:1004A000012494401C400CB1012000E0002010BD4C
:1004B000001002400248406800F00C007047000045
:1004C0000010024001460020034A506820F0F0006E
:1004D0000843506070470000001002400149086066
:1004E000704700000000424201460020034A506865
:1004F00020F4E060084350607047000000100240A4
:1005000001460020034A506820F4605040EAC100D0
:1005100050607047001002400149086670470000B3
:100520000000424202460020044B586820F47C1030
:1005300042EA01031843014B586070470010024023
:1005400001460020034A506820F003000843506031
:100550007047000000100240704710B500F002F82C
:1005600010BD00001CB500200190009034480068C8
:1005700040F480303249086000BF3148006800F420
:10058000003000900198401C0190009818B9019823
:10059000B0F5A06FF1D12A48006800F4003010B126
:1005A0000120009001E0002000900098012844D133
:1005B0002448006840F0100022490860084600689E
:1005C00020F0030008600846006840F00200086060
:1005D0001B4840681A494860084640684860084619
:1005E000406840F4806048600846406820F47C1011
:1005F00048600846406840F4E810486008460068D3
:1006000040F08070086000BF0D48006800F0007086
:100610000028F9D00A48406820F0030008494860E3
:100620000846406840F00200486000BF0448406847
:1006300000F00C000828F9D101E0FFF7C5FE1CBD51
:10064000001002400020024002480068401C01499E
:10065000086070470000002070B501460A46501E31
:10066000B0F1807F00D31BE0501E4FF0E0235861B3
:1006700058170F23002804DB1C07250E094C2554AE
:1006800006E01C07260E084C00F00F052D1F6655CE
:1006900000BF00204FF0E02398610720186100BFE1
:1006A00070BD000000E400E018ED00E010B5134854
:1006B000006840F001001149086008464068104990
:1006C00008400E494860084600680E4908400B493A
:1006D00008600846006820F48020086008464068EA
:1006E00020F4FE0048604FF41F008860FFF735FFDC
:1006F0004FF000600449086010BD00000010024087
:100700000000FFF8FFFFF6FE08ED00E000BFFEE787
:1007100002E008C8121F08C1002AFAD170477047CA
:10072000002001E001C1121F002AFBD17047000028
:100730004FF4A06101F00702104B18684FF6FF0359
:1007400018400F4B034343EA02200C4B186000BFD4
:10075000FFF7E4FD49F64040FFF77EFFFFF7FEFD9F
:100760000BE0FFF7F1FD4FF4FA70FFF7F1FCFFF734
:10077000E1FD4FF4FA70FFF7EBFCF2E70CED00E05F
:100780000000FA05A4070008000000200400000093
:1007900010070008A8070008040000200404000057
:0807A000200700080000000022
:04000005080000ED02
:00000001FF
