:020000040800F2
:1000000038040020010100081104000891020008D2
:100010000D04000875010008C70800080000000072
:10002000000000000000000000000000B105000812
:100030007901000800000000990400089D060008EE
:100040001B0100081B0100081B0100081B01000820
:100050001B0100081B0100081B0100081B01000810
:100060001B0100081B0100081B0100081B01000800
:100070001B0100081B0100081B0100081B010008F0
:100080001B0100081B0100081B0100081B010008E0
:100090001B0100081B0100081B0100081B010008D0
:1000A0001B0100081B0100081B0100081B010008C0
:1000B0001B0100081B0100081B0100081B010008B0
:1000C0001B0100081B0100081B0100081B010008A0
:1000D0001B010008010700081B0100081B010008A4
:1000E0001B0100081B0100081B010008DFF80CD0F1
:1000F00000F02EF800480047490B000838040020A3
:100100000648804706480047FEE7FEE7FEE7FEE7B1
:10011000FEE7FEE7FEE7FEE7FEE7FEE7A1060008D2
:10012000ED00000830B50B460146002020220124D6
:1001300009E021FA02F59D4205D303FA02F5491BB5
:1001400004FA02F52844151EA2F10102F1DC30BDCB
:10015000064C074D06E0E06840F0010394E8070014
:1001600098471034AC42F6D3FFF7C4FFBC0B00082D
:10017000DC0B000800BFFEE770472DE9F0410246A6
:1001800000250026002000230024002791F803C04A
:100190000CF00F0591F803C00CF0100CBCF1000F2F
:1001A00003D091F802C04CEA050591F800C0BCF1FB
:1001B000000F31D0146800202BE04FF0010C0CFA36
:1001C00000F3B1F800C00CEA03069E4220D1830080
:1001D0004FF00F0C0CFA03F7BC4305FA03FC4CEA92
:1001E000040491F803C0BCF1280F06D14FF0010CB4
:1001F0000CFA00FCC2F814C00AE091F803C0BCF18C
:10020000480F05D14FF0010C0CFA00FCC2F810C0E9
:10021000401C0828D1D31460B1F800C0BCF1FF0F16
:1002200034DD546800202EE000F1080C4FF0010886
:1002300008FA0CF3B1F800C00CEA03069E4221D183
:1002400083004FF00F0C0CFA03F7BC4305FA03FCD4
:100250004CEA040491F803C0BCF1280F05D100F169
:10026000080C08FA0CF8C2F8148091F803C0BCF12D
:10027000480F07D100F1080C4FF0010808FA0CF8FC
:10028000C2F81080401C0828CED35460BDE8F0812D
:1002900000BFFEE721B1028842F00102028004E0C3
:1002A00002884FF6FE731A400280704700B585B091
:1002B0000121082000F002F90121480500F0EEF8C4
:1002C000C020ADF800001C208DF8030003208DF83D
:1002D000020069460F48FFF750FF4FF48060ADF809
:1002E0000E000001ADF810000B4801904BF6FF70B6
:1002F000ADF80A000020ADF808005E20ADF80C0053
:1003000001A9064800F00CF801210448FFF7C2FFDC
:1003100005B000BD000C0140801A060000540040EA
:100320002DE9F04385B004460D460026B14604276A
:10033000DFF8CC80A6884FF6C0700640684600F013
:10034000CDF8DDF808802F48B8FBF0F01FFA80F9EF
:1003500046EA0906A68020884FF6FE7108402080F4
:1003600000262949286888420CD828684000B8FB34
:10037000F0F087B2042F00DA04273E4309F10100B0
:10038000208427E0E8884BF6FF71884206D1286870
:1003900000EB4000B8FBF0F087B209E0286800EB02
:1003A000C00101EB0010B8FBF0F087B247F48047C2
:1003B000C7F30B0008B947F0010747F400400643B4
:1003C0004FF4967009FB00F04FF47A7190FBF1F056
:1003D000401C2084A683208840F0010020802688CD
:1003E0004FF6F5300640A888698908430643268001
:1003F000A88929890843208105B0BDE8F083000061
:1004000000127A0040420F00A086010000BFFEE704
:100410007047000070B5002100230F22C47804B398
:10042000154C246804F4E064C4F5E064210AC1F1C9
:100430000403CA40447804FA03F184781440214349
:1004400009010E4C0678A155047804F01F0501241B
:10045000AC4005786D11AD0005F1E025C5F800410F
:1004600009E0047804F01F050124AC40044D06782F
:10047000761145F8264070BD0CED00E000E400E088
:1004800080E100E002490143024A11607047000028
:100490000000FA050CED00E07047000029B1064AA3
:1004A000D2690243044BDA6104E0034AD269824311
:1004B000014BDA61704700000010024029B1064A82
:1004C00092690243044B9A6104E0034A92698243B1
:1004D000014B9A61704700000010024030B50021C6
:1004E0000022002400232D4D6D6805F00C0121B180
:1004F000042905D0082923D105E0294D056022E013
:10050000274D05601FE0254D6D6805F47012234DE1
:100510006D6805F48034022505EB92421CB9214D2B
:10052000554305600BE01D4D6D6805F400351DB1A8
:100530001C4D5543056002E0194D5543056002E02E
:10054000174D056000BF00BF144D6D6805F0F00148
:100550000909154D6B5C0568DD4045600F4D6D6800
:1005600005F4E061090A104D6B5C4568DD4085606B
:100570000A4D6D6805F46051C90A0B4D6B5C456806
:10058000DD40C560054D6D6805F44041890B074DA0
:100590006B5CC568B5FBF3F5056130BD001002402A
:1005A00000127A0000093D00000000201000002029
:1005B000704710B500F002F810BD00000CB5002027
:1005C000019000903348006840F480303149086061
:1005D00000BF3048006800F4003000900198401CD3
:1005E0000190009818B90198B0F5A06FF1D1294891
:1005F000006800F4003010B10120009001E00020FC
:1006000000900098012843D12348006840F0100072
:10061000214908600846006820F003000860084689
:10062000006840F0020008601A48406819494860B4
:100630000846406848600846406840F4806048606A
:100640000846406820F47C1048600846406840F442
:10065000E81048600846006840F08070086000BFFD
:100660000C48006800F000700028F9D00948406884
:1006700020F00300074948600846406840F0020047
:10068000486000BF0348406800F00C000828F9D11A
:100690000CBD000000100240002002407047000026
:1006A00010B51348006840F0010011490860084681
:1006B0004068104908400E494860084600680E49E5
:1006C00008400B4908600846006820F48020086054
:1006D0000846406820F4FE0048604FF41F00886020
:1006E000FFF767FF4FF000600449086010BD00008D
:1006F000001002400000FFF8FFFFF6FE08ED00E0EA
:1007000010B540F225510B4800F035F8012810D102
:10071000084800F0CFF8084908700846007800F053
:10072000FBF906A000F0D2F840F22551014800F094
:1007300007F810BD00380140300000200A0000001A
:1007400010B50022002340F66A14A14200D100BF78
:100750000A1201249440A3B2DC43048010BD21B1ED
:10076000828942F40052828104E082894DF6FF734F
:100770001A408281704702460020B1F5007F00D107
:1007800000BF13880B400BB1012000E00020704730
:10079000F0B50346002400260025002040F66A1725
:1007A000B94200D100BF1846C1F3421401F01F0640
:1007B000012707FA06F5012C01D10C3004E0022CC8
:1007C00001D1103000E014301AB107682F430760E0
:1007D00002E00768AF430760F0BD00002DE9F04775
:1007E00086B005460E460024A24600BFA14600275B
:1007F000B08900B100BF2F462C8A4CF6FF70044030
:10080000F08804432C82AC894EF6F3100440B08883
:1008100031890843718908430443AC81AC8A4FF69F
:10082000FF400440B0890443AC8201A8FFF756FEA4
:100830001F48874202D1DDF810A001E0DDF80CA0CE
:10084000A88900F4004040B10AEBCA0000EB0A108E
:1008500031684900B0FBF1F807E00AEBCA0000EB91
:100860000A1031688900B0FBF1F86420B8FBF0F0A1
:1008700004012009642101FB1089A88900F40040CB
:1008800040B1322000EBC900B0FBF1F000F00700EE
:10089000044308E0322000EB09106421B0FBF1F0C2
:1008A00000F00F0004432C8106B0BDE8F087000083
:1008B0000038014001468888C0F308007047C1F342
:1008C00008028280704700BFFEE700000FB4054BAE
:1008D00010B503A9044A029800F018F810BC5DF89E
:1008E00014FB0000390B00083400002002E008C8A7
:1008F000121F08C1002AFAD170477047002001E09A
:1009000001C1121F002AFBD1704700002DE9FF4FE3
:1009100089B09B460446002506E025280BD05A46A0
:100920000B999047641C6D1C20780028F5D10DB000
:100930002846BDE8F08F0027B8460122474900E06D
:10094000074314F8013F203B02FA03F00842F7D1B5
:1009500020782E2819D114F8010F47F004072A280F
:100960000ED06FF02F022078A0F1300109290CD8A9
:1009700008EB880102EB410100EB0108641CF2E77F
:100980000A98641C50F8048B0A9020780028CED076
:10099000642808D0692806D075281ED05A460B99BD
:1009A00090476D1C58E00A994FF00A0901C90A9155
:1009B000002802DA40422D2102E0390504D52B211E
:1009C0008DF82010012103E0F90704D02021F7E77A
:1009D0008A4608AE0DE00021FAE70A994FF00A09AD
:1009E00001C90A91F7E74946FFF79CFB303106F849
:1009F000011D0028F7D1ADEB060000F120097807B2
:100A000001D44FF00108C84502DDA8EB090000E061
:100A100000208046002706E008A85A46C05D0B99D2
:100A200090476D1C7F1C5745F6DB04E030205A468A
:100A30000B9990476D1CB8F10001A8F10108F5DC95
:100A400005E016F8010B5A460B9990476D1CB9F159
:100A50000001A9F10109F4DC641C65E70928010023
:100A600000B587B001218803FFF728FD012104208C
:100A7000FFF724FD03208DF81A004FF40070ADF845
:100A8000180018208DF81B0006A92148FFF775FBF8
:100A900003208DF81A004FF48060ADF8180048204C
:100AA0008DF81B0006A91A48FFF767FB4FF4E130E9
:100AB00002900020ADF814000C20ADF812000020C8
:100AC000ADF81000ADF80E00ADF80C0002A9114809
:100AD000FFF784FE012240F225510E48FFF758FE31
:100AE0004FF4A060FFF7CEFC25208DF80400012014
:100AF0008DF807008DF805008DF8060001A8FFF7B6
:100B000089FC01210348FFF72AFE07B000BD000061
:100B1000000801400038014010B504462146054850
:100B2000FFF7CDFE00BF80210248FFF724FE00281A
:100B3000F9D010BD0038014070B504460D46E0B252
:100B4000FFF7EAFF204670BD0024FFF7AFFBFFF779
:100B500087FF09A0FFF7BAFE00BF06E00E48015D5F
:100B60000EA0FFF7B3FE601CC4B2082CF6DB0CA08D
:100B7000FFF7ACFE00BFFEE7E8BF99E698AFE4B828
:100B800080E4B8AA494943E9809AE8AEAFE5AE9E51
:100B9000E9AA8C0A0000000028000020256420003B
:100BA0000A49494320E8AFBBE58F9620454550529E
:100BB0004F4D20E5AE9EE9AA8C0A0000DC0B000830
:100BC0000000002038000000EC080008140C0008A9
:100BD0003800002000040000FC08000800000000AD
:100BE00001020304010203040607080902040608BF
:100BF00001000200030004000500060007000800D1
:100C000009000A000405060708090A0B0000000095
:040C100000000000E0
:04000005080000ED02
:00000001FF
