:020000040800F2
:10000000701400200101000899180008A50D0008CF
:10001000BD1700080906000839200008000000008C
:100020000000000000000000000000002D1C00087F
:10003000AD070008000000002D190008291E000867
:100040001B0100081B0100081B0100081B01000820
:100050001B0100081B0100081B0100081B01000810
:100060001B0100081B0100081B0100081B01000800
:100070001B0100081B0100081B0100081B010008F0
:100080001B0100081B0100081B0100081B010008E0
:100090001B0100081B0100081B0100081B010008D0
:1000A0001B0100081B0100081B0100081B010008C0
:1000B0001B0100081B010008000000001B010008D4
:1000C0001B01000800000000000000001B010008E8
:1000D000000000001B0100081B01000800000000D8
:1000E0001B0100081B0100081B010008DFF80CD0F1
:1000F00000F05AF80048004731240008701400202E
:100100000648804706480047FEE7FEE7FEE7FEE7B1
:10011000FEE7FEE7FEE7FEE7FEE7FEE7C51E000896
:10012000ED00000840EA01039B0703D009E008C97D
:10013000121F08C0042AFAD203E011F8013B00F8AC
:10014000013B521EF9D27047D2B201E000F8012BF8
:10015000491EFBD270470022F6E710B513460A4647
:1001600004461946FFF7F0FF204610BD421C10F868
:10017000011B0029FBD1801A704730B50B460146A0
:1001800000202022012409E021FA02F59D4205D336
:1001900003FA02F5491B04FA02F52844151EA2F1E0
:1001A0000102F1DC30BD0000064C074D06E0E068BE
:1001B00040F0010394E8070098471034AC42F6D3AE
:1001C000FFF798FFFC7700081C78000810B507239C
:1001D000012211460A4800F089F80121084800F080
:1001E000E1F800BF0221064800F04FF80028F9D0DE
:1001F000034800F046F8034908800846008810BD0F
:10020000002401403000002000B587B001214FF4E8
:10021000017001F0A9FB00208DF81B000220ADF851
:10022000180003208DF81A0006A90E4800F0FAFA0B
:1002300000208DF8090004904FF460200390002006
:10024000019001208DF8140000208DF8080001A90C
:10025000054800F023F80121034800F007F807B033
:1002600000BD0000000801400024014021B1826867
:1002700042F00102826003E0826822F001028260A3
:1002800070470146C86C80B2704702460020136870
:100290000B400BB1012000E00020704730B5024652
:1002A0000020002350680F4C20400D790C6844EA70
:1002B00005242043506090680B4C2040D1E9025443
:1002C0002C434D7944EA450420439060D06A20F4E1
:1002D00070000C7C641EE4B2234340EA0350D062F9
:1002E00030BD0000FFFEF0FFFDF7F1FFF0B5044662
:1002F0000D4600200021092D11DDE068A5F10A0658
:1003000006EB4607072606FA07F18843A5F10A0619
:1003100006EB460603FA06F10843E0600CE02069AC
:1003200005EB4507072606FA07F1884305EB450666
:1003300003FA06F108432061072A0FDA606B561EA4
:1003400006EB86071F2606FA07F18843561E06EBC2
:10035000860605FA06F10843606322E00D2A0FDAEB
:10036000206BD61F06EB86071F2606FA07F1884387
:10037000D61F06EB860605FA06F10843206310E057
:10038000E06AA2F10D0606EB86071F2606FA07F1C2
:100390008843A2F10D0606EB860605FA06F108432E
:1003A000E062F0BD21B1826842F4A002826003E005
:1003B000826822F4A00282607047000010B5A2B0EB
:1003C000802102A8FFF7C7FE4FF4E1612848FFF73C
:1003D000C2FE28A229A1264801F04EFE2448FFF7BC
:1003E000C5FE2349A1F800012EA322A230A1324864
:1003F00001F042FE3048FFF7B9FE1D49A1F80202A4
:1004000028A01CA31BA22DA1009002A801F034FE7D
:1004100002A8FFF7ABFE0446202031A3394A21464B
:10042000009002A802F0F0FA3648FFF79FFE10494C
:10043000A1F804031BA234A13D4801F01DFE40F2C7
:100440005B700B49A1F806040AA316A239A1434820
:1004500001F012FE07A313A241A14C4801F00CFECB
:1004600004A310A24AA1544801F006FE22B010BD18
:100470005A0100207A6E776C5F30310025737C73EF
:1004800065637572656D6F64653D332C7369676E66
:100490006D6574686F643D686D6163736861317C1C
:1004A00000000000683674376E715675377334007B
:1004B00025732625730000005C020020636C6965CB
:1004C0006E74496425736465766963654E616D6514
:1004D000257370726F647563744B657925730000C2
:1004E000633031646236376132313366626237308D
:1004F00038393663393031393931386165393166E7
:10050000000000005E03002025732E696F742D61CA
:10051000732D6D7174742E636E2D7368616E6768D0
:1005200061692E616C6979756E63732E636F6D00FE
:10053000600400202F7379732F25732F25732F7478
:1005400068696E672F6576656E742F70726F70655F
:100550007274792F706F73740000000062050020C0
:100560002F7379732F25732F25732F7468696E6726
:100570002F6576656E742F70726F70657274792F47
:10058000706F73745F7265706C7900006206002092
:100590002F7379732F25732F25732F7468696E67F6
:1005A0002F736572766963652F70726F70657274F0
:1005B000792F7365740000006207002008B50C48AD
:1005C00000780C4948800A48407808800A4800882A
:1005D000888008468088009008460388428807493A
:1005E000074801F049FD0649064801F01BF908BD1E
:1005F0002E00002062080020300000205477000800
:100600004C0000206205002000BFFEE738B504461C
:100610000121042001F0A8F94FF40060ADF80000BA
:1006200003208DF80200012C02D110208DF8030068
:1006300014B904208DF803006946024800F0F2F86E
:1006400038BD00000008014010B54FF400610448B7
:10065000FFF781FD002002490A39088110BD000022
:100660006C0800207CB5002000900190002401203F
:10067000FFF7CCFF4FF400614A4800F0B2F94FF4A5
:100680000061484800F0ABF9142000F091F84FF4F5
:100690000061444800F0A5F90020FFF7B7FF00BF54
:1006A0004FF400613F4800F091F90128F8D000BFF5
:1006B0004FF400613B4800F089F90028F8D000248D
:1006C00054E000BF4FF40061364800F07FF9012884
:1006D000F8D000BF4FF40061324800F077F90028ED
:1006E000F8D01E2000F070F84FF400612D4800F0A3
:1006F0006DF9012819D1E21704EB5272D2101DF8DE
:1007000002202146E31704EB5373DB10A4EBC30371
:10071000C3F107050123AB401A43D2B22046E317C9
:1007200004EB5373DB100DF803204FF400611D48F8
:1007300000F04CF9C0B9E21704EB5272D2101DF868
:1007400002202146E31704EB5373DB10A4EBC30331
:10075000C3F107050123AB409A432046E31704EB9E
:100760005373DB100DF80320601CC4B2282CA8DBE7
:100770009DF800009DF8011008449DF802100844FF
:100780009DF8031008449DF80410884208D19DF894
:100790000200054948709DF80000087001207CBDEA
:1007A0000020FCE7000801402E00002070470000F8
:1007B000044A1268111800BF024A12688A42FBD329
:1007C000704700000400002027E000BF00BF00BF0A
:1007D00000BF00BF00BF00BF00BF00BF00BF00BF21
:1007E00000BF00BF00BF00BF00BF00BF00BF00BF11
:1007F00000BF00BF00BF00BF00BF00BF00BF00BF01
:1008000000BF00BF00BF00BF00BF00BF00BF00BFF0
:1008100000BF00BF00BF00BF00BF011EA0F101006C
:10082000D3D170472DE9F041024600250026002073
:1008300000230024002791F803C00CF00F0591F865
:1008400003C00CF0100CBCF1000F03D091F802C0F3
:100850004CEA050591F800C0BCF1000F31D01468D6
:1008600000202BE04FF0010C0CFA00F3B1F800C0AF
:100870000CEA03069E4220D183004FF00F0C0CFAC5
:1008800003F7BC4305FA03FC4CEA040491F803C0E7
:10089000BCF1280F06D14FF0010C0CFA00FCC2F895
:1008A00014C00AE091F803C0BCF1480F05D14FF025
:1008B000010C0CFA00FCC2F810C0401C0828D1D36F
:1008C0001460B1F800C0BCF1FF0F34DD54680020A3
:1008D0002EE000F1080C4FF0010808FA0CF3B1F813
:1008E00000C00CEA03069E4221D183004FF00F0C9A
:1008F0000CFA03F7BC4305FA03FC4CEA040491F834
:1009000003C0BCF1280F05D100F1080C08FA0CF85F
:10091000C2F8148091F803C0BCF1480F07D100F170
:10092000080C4FF0010808FA0CF8C2F81080401CBF
:100930000828CED35460BDE8F0810000F0B50A4627
:10094000002300240021002500F00046B6F1004FEE
:1009500002D11D4EF16901E01B4E7168C0F30345E1
:1009600083B200F44016B6F5401F08D121F0706143
:10097000154E766826F07066134F7E6012E000F424
:100980008016B6F5801F06D1032606FA05F4A143AA
:1009900041F0706106E0460D360103FA06F6B143F8
:1009A00041F0706122B1460D360103FA06F631437B
:1009B00000F00046B6F1004F02D1034EF16101E0B4
:1009C000014E7160F0BD00000000014002460020B1
:1009D00093680B400BB1012000E00020704741619B
:1009E0007047016170470AB1016100E041617047E1
:1009F0002DE9F84F04460F4692469B462646262090
:100A0000009007F10F0083B204F10F0082B2394663
:100A1000204600F0A9FB00256AE005EB05103D49E2
:100A200011F810100A98007881425ED105EB05108C
:100A3000384901EB400041780A984078814254D10E
:100A40004FF000084EE04FF0000943E00B9800BB68
:100A500005EB05102F4901EB4000801C10F8081031
:100A6000802040FA09F0014019B12B48A0F800A0FD
:100A700002E02948A0F800B02748008800F0F2FC06
:100A8000601C84B2A01B102820D13446781C87B289
:100A900023E02148A0F800A005EB05101D4901EB5B
:100AA0004000801C10F80810802040FA09F0014036
:100AB00019B13946204600F0EBF9601C84B2A01B46
:100AC000102803D13446781C87B206E009F10100F2
:100AD00000F0FF09B9F1080FB8DB00BF08F1010011
:100AE00000F0FF08B8F1200FADDB00BF681C85B235
:100AF0000098854291DB09484088401E83B2074830
:100B00000088401E82B20021084600F02DFBBDE89F
:100B1000F88F0000B2500008280000204C0100208F
:100B20002DE9F84F04460F4692469B462646012083
:100B3000009007F1170083B204F1170082B2394622
:100B4000204600F011FB002572E005EB850000EB6C
:100B50004510404911F810100A980078814264D17C
:100B600005EB850000EB45103A4901EB4000417868
:100B70000A984078814258D14FF0000852E04FF077
:100B8000000947E00B9810BB05EB850000EB451012
:100B9000304901EB4000801C10F80810802040FA1A
:100BA00009F0014019B12C48A0F800A002E02A4841
:100BB000A0F800B02848008800F054FC601C84B203
:100BC000A01B182822D13446781C87B225E0224881
:100BD000A0F800A005EB850000EB45101D4901EBD6
:100BE0004000801C10F80800802141FA09F10840FB
:100BF00018B13946204600F04BF9601C84B2A01BA6
:100C0000182803D13446781C87B206E009F10100A8
:100C100000F0FF09B9F1080FB4DB00BF08F10100D3
:100C200000F0FF08B8F1480FA9DB00BF681C85B2CF
:100C30000098854289DB09484088401E83B20748F6
:100C40000088401E82B20021084600F08DFABDE8FF
:100C5000F88F0000BE550008280000204C0100203D
:100C60002DE9F84F04460E4692469B462746012042
:100C7000009006F11F0083B204F11F0082B23146DA
:100C8000204600F071FA002574E005EB851042491A
:100C900011F810100A980078814268D105EB851090
:100CA0003D4901EB400041780A98407881425ED18D
:100CB00006F11F0083B204F11F0082B231462046C4
:100CC00000F052FA4FF000084EE04FF0000943E008
:100CD0000B9800BB05EB85102F4901EB4000801CF1
:100CE00010F80800802141FA09F1084018B12B489A
:100CF000A0F800A002E02948A0F800B0274800882A
:100D000000F0B0FB601C84B2E01B202820D13C46E0
:100D1000701C86B223E02148A0F800A005EB8510E6
:100D20001D4901EB4000801C10F80800802141FAA9
:100D300009F1084018B13146204600F0A9F8601CBE
:100D400084B2E01B202803D13C46701C86B206E02A
:100D500009F1010000F0FF09B9F1080FB8DB00BF8D
:100D600008F1010000F0FF08B8F1800FADDB00BF13
:100D7000681C85B20098854287DB09484088401E80
:100D800083B207480088401E82B20021084600F066
:100D9000EBF9BDE8F88F0000085600082800002095
:100DA0004C01002000BFFEE710B50121084600F00D
:100DB000DBFD01210148FFF7C1FD10BD000430003B
:100DC00010B501211748FFF701FE28B91648007831
:100DD000401C154908700BE0134800780F2804DD0B
:100DE000002011490870012010BD00200E49087034
:100DF00002210C48FFF7EAFD28B90C480078401C96
:100E00000A4908700CE0094800780F2804DD00202A
:100E1000064908700220E7E7002004490870E3E76C
:100E20000020E1E7001001403200002033000020E4
:100E300070B5064614484088401E83B212480088A8
:100E4000401E82B20021084600F08EF94FF4006087
:100E50000E4908604010091F086000240AE00025C0
:100E600003E0304600F0FEFA6D1C07480088A842F7
:100E7000F7D8641C04484088A042F0D84FF40060C2
:100E80000249091F086070BD4C010020140C01408C
:100E900030B504460D462946204600F05BF902486D
:100EA000008800F0DFFA30BD2800002008B50121DD
:100EB000082000F059FD4FF43E40ADF8000003203B
:100EC0008DF8020010208DF8030069460848FFF7EE
:100ED000A9FC4FF48040ADF8000048208DF80300D5
:100EE00003208DF8020069460148FFF79BFC08BD0E
:100EF000000C014010B5FFF7D9FF00F015F9CF2025
:100F000000F006FA002000F0EFF9D92000F0ECF92B
:100F1000302000F0E9F9ED2000F0FAF9642000F04B
:100F2000E3F9032000F0E0F9122000F0DDF9812060
:100F300000F0DAF9E82000F0EBF9852000F0D4F9B0
:100F4000102000F0D1F97A2000F0CEF9CB2000F08B
:100F5000DFF9392000F0C8F92C2000F0C5F9002095
:100F600000F0C2F9342000F0BFF9022000F0BCF913
:100F7000F72000F0CDF9202000F0B6F9EA2000F0CB
:100F8000C7F9002000F0B0F9002000F0ADF9C02052
:100F900000F0BEF91B2000F0A7F9C12000F0B8F95D
:100FA000122000F0A1F9C52000F0B2F9262000F0CF
:100FB0009BF9262000F098F9C72000F0A9F9B0208D
:100FC00000F092F9362000F0A3F9082000F08CF927
:100FD0003A2000F09DF9552000F086F9B12000F08C
:100FE00097F9002000F080F91A2000F07DF9B62072
:100FF00000F08EF90A2000F077F9A22000F074F9D1
:10100000F22000F085F9002000F06EF9262000F0B3
:101010007FF9012000F068F9E02000F079F91F2045
:1010200000F062F9242000F05FF9242000F05CF960
:101030000D2000F059F9122000F056F9092000F0B7
:1010400053F9522000F050F9B72000F04DF93F203D
:1010500000F04AF90C2000F047F9152000F044F99F
:10106000062000F041F90E2000F03EF9082000F0C3
:101070003BF9002000F038F9E12000F049F90020A8
:1010800000F032F91B2000F02FF91B2000F02CF9A2
:10109000022000F029F90E2000F026F9062000F0C9
:1010A00023F92E2000F020F9482000F01DF93F2000
:1010B00000F01AF9032000F017F90A2000F014F9E3
:1010C000092000F011F9312000F00EF9372000F06E
:1010D0000BF91F2000F008F92B2000F019F900206F
:1010E00000F002F9002000F0FFF8012000F0FCF809
:1010F0003F2000F0F9F82A2000F00AF9002000F063
:10110000F3F8002000F0F0F8002000F0EDF8EF20F8
:1011100000F0EAF8112000F0FBF8292000F0F8F8C0
:10112000002000F01BF910BD10B54FF480500749A6
:1011300008600748FFF748FB4FF480500349091F38
:1011400008604CF25030FFF73FFB10BD140C01401B
:10115000A086010030B504460D462B46224629469E
:10116000204600F001F830BDF0B504460D461646A5
:101170001F461149887A00F0CBF8201200F0B4F82D
:10118000E0B200F0B1F8301200F0AEF8F0B200F0CA
:10119000ABF80949087B00F0BBF8281200F0A4F86E
:1011A000E8B200F0A1F8381200F09EF8F8B200F0B2
:1011B0009BF800F0C1F8F0BD4C0100202DE9FF4F75
:1011C00082B081468A469346DDE90F644248008832
:1011D0000190A6F12000C6B204EBD47009EB6000C8
:1011E000401E82B20AEB0400401E83B251464846BC
:1011F0000094FFF7B9FF119870BB002529E00C2C73
:1012000007D106EB4600354901EB800010F8058058
:1012100004E0334800EB061010F80580002711E0C9
:1012200008F0010018B12C48A0F800B002E02A49EB
:10123000059808802848008800F014F94FEA6808EB
:10124000781CC7B204EBD471B7EB610FE8DB681C04
:10125000C5B2A542D3DB2DE0002529E00C2C07D137
:1012600006EB46001D4901EB800010F8058004E004
:101270001B4800EB061010F80580002711E0164807
:10128000A0F800B008F0010038B10AEB050291B2F5
:1012900009EB070290B2FFF7FBFD4FEA6808781CE4
:1012A000C7B204EBD471B7EB610FE8DB681CC5B2C1
:1012B000A542D3DB0849019808800A484088401EAF
:1012C00083B208480088401E82B200210846FFF71A
:1012D0004BFF06B0BDE8F08F280000204E46000806
:1012E000C24A00084C01002010B504464FF40060CB
:1012F000064908604010091F0860204600F076FC8F
:101300004FF400600149091F086010BD140C014032
:1013100010B504464FF400600649086040100860AC
:10132000204600F063FC4FF400600249091F08608A
:1013300010BD0000140C014000B50249087AFFF707
:10134000E7FF00BD4C01002030B505460C4628469D
:10135000FFF7DEFFE0B2FFF7C7FF30BD10B5044670
:101360002A201E4948812B2088812C20088134B1F5
:10137000012C0FD0022C18D0032C2CD120E0F0200F
:10138000164908804FF4A070488048213620FFF7A6
:10139000DBFF21E04FF4A07010490880F020488066
:1013A00068213620FFF7D0FF16E0F0200B490880B7
:1013B0004FF4A0704880C8213620FFF7C5FF0BE02E
:1013C0004FF4A07005490880F0204880A8213620FD
:1013D000FFF7BAFF00E000BF00BF10BD4C010020C6
:1013E00010B500244FF480710748FFF7EFFA044668
:1013F0000CB9012000E00020044622464FF4807121
:101400000148FFF7F0FA10BD0010014010B50024AC
:101410004FF400710748FFF7D9FA04460CB90120D0
:1014200000E00020044622464FF400710148FFF717
:10143000DAFA10BD0010014008B50121102000F0BB
:1014400093FA10208DF803004FF44070ADF80000BF
:1014500003208DF8020069460148FFF7E3F908BD53
:101460000010014010B504464FF4006008490860C0
:101470004010091F0860201200F0B8FBE0B200F035
:10148000B5FB4FF400600249091F086010BD000061
:10149000140C014030B50246002300BF0846CD17AA
:1014A00001EB5565ED11A1EBC515ECB2CD1701EBC4
:1014B0005565E911002901DD44F0800418465B1CE4
:1014C00014540029EADC184630BD0000401C802876
:1014D00001DA401C0AE0B0F5804F01DA801C05E01B
:1014E0000349884201DAC01C00E0001D704700007B
:1014F000FFFF1F002DE9FE4305460E4614460295E8
:1015000000200190009000274FF0FF38204600F0A7
:10151000A5F807468146FFF7D9FFB04202DD6FF01C
:1015200001088FE000208DF80400019820F0F00001
:10153000103001909DF8041002A803F04BF83946D2
:101540000298FFF7A7FF029908440290207A042826
:1015500008D13EA102A803F029F8042102A803F053
:1015600039F807E03BA102A803F020F8032102A804
:1015700003F030F800208DF80000A17E009861F3A0
:1015800041000090E07E08B1012100E000210098B8
:1015900061F3820000900098C0F3800058B194F885
:1015A0003D10009861F3C400009094F83C1000983E
:1015B00061F345100090206C08B9A06C20B1009830
:1015C00020F0800080300090E06C08B9606D20B1A0
:1015D000009820F04000403000909DF8001002A8D4
:1015E00002F0F8FF218B02A802F0FAFF02A8D4E96A
:1015F0000423E16803F00CF8E07E58B102A8D4E9B6
:101600000A23616A03F004F802A8D4E90D23216BD0
:1016100002F0FEFF0098C0F3C01028B102A8D4E980
:101620001123216C02F0F4FF0098C0F3801028B160
:1016300002A8D4E91423E16C02F0EAFF0298A0EBBF
:10164000050800BF4046BDE8FE8300004D515454DC
:10165000000000004D5149736470000070B50446ED
:101660000025207A032801D10C2503E0207A0428E4
:1016700000D10A25D4E90412E06800F093F8801C38
:101680000544E07E68B1D4E90A12606A00F08AF885
:10169000861CD4E90D12206B00F084F83044801CC5
:1016A0000544206C08B9A06C30B1D4E91112206C4B
:1016B00000F078F8801C0544E06C08B9606D30B12A
:1016C000D4E91412E06C00F06DF8801C0544284643
:1016D00070BD2DE9F04F87B005460F4690461C4679
:1016E000DDE915B6DDE9109A069500200590049015
:1016F00003900096204612A90EC900F042F804900B
:101700000290FFF7E3FEB84203DD6FF001000390A3
:1017100033E0059820F0F00030300590059868F32C
:10172000C3000590059864F342000590059869F39D
:10173000000005909DF8141006A802F04BFF0499D4
:101740000698FFF7A7FE06990844069006A812A976
:101750000EC902F05DFF002C03DD514606A802F021
:101760003FFF324659460698FEF7DCFC06983044A7
:1017700006900698401B039000BF039807B0BDE891
:10178000F08F7FB50546089E002401A807C800F029
:1017900009F8801C30440444002D00DDA41C2046C0
:1017A00004B070BD37B50024009820B10098FEF752
:1017B000DDFC044600E0019C20463EBD00BFFEE784
:1017C00070B596B004460D461646FEF73DFF58220A
:1017D00012496846FEF7A6FC01208DF81A00039412
:1017E0003C20ADF8180004208DF8080010951396E1
:1017F0006A4641020A48FFF77DFE09490A39088115
:101800000846008910B9012016B070BD04480A3896
:10181000017A0A3000F012FC00BFF5E724700008DE
:101820006C0800202DE9F0478AB005460C460026DA
:101830000027B046B146B246FEF706FF00200790EB
:101840000890099007952046FEF790FC0646CDE9E2
:10185000054607A807C84346CDE9009ACDE903121B
:1018600002903A464FF400610A48FFF732FF0949F7
:101870000A39088108460089002803DC01200AB0E3
:10188000BDE8F08703480A38017A0A3000F0D6FB39
:101890000020F4E76C080020704700002DE9F84FA5
:1018A00004460D4616461F46DDF828A04FF00009F5
:1018B00005EB070CACF1010C1FFA8CF304EB060CE2
:1018C000ACF1010C1FFA8CF2A9B2A0B2FFF74CFCEC
:1018D000009516E0A3460EE009F101001AF8000099
:1018E0001AF8091040EA01284046FFF7BBFD09F14C
:1018F00002090BF1010B30195845EDDC0098401C32
:101900000090791900988142E4DC07484088401E25
:1019100083B205480088401E82B200210846FFF7C6
:1019200023FCBDE8F88F00004C0100207047000048
:1019300001460020034A506820F4404008435060AC
:10194000704700000010024029B1064AD2690243E4
:10195000044BDA6104E0034AD2698243014BDA6145
:10196000704700000010024029B1064A9269024304
:10197000044B9A6104E0034A92698243014B9A61E5
:10198000704700000010024010B500F02FF8012051
:1019900000F0EEF800BF212000F0B8F80028FAD0DF
:1019A000002000F0D9F84FF4806000F0E7F8002044
:1019B00000F0F0F84FF48040FFF7BAFF4FF4001149
:1019C000002000F0F9F8012000F0F0F800BF392005
:1019D00000F09CF80028FAD0022000F0FBF800BFCD
:1019E00000F0B2F80828FBD110BD00000F480068D5
:1019F00040F001000D490860084640680C49084065
:101A00000A494860084600680A49084007490860D2
:101A10000846006820F4802008600846406820F4EA
:101A2000FE0048604FF41F008860704700100240BD
:101A30000000FFF8FFFFF6FE30B500210022002471
:101A400000232D4D6D6805F00C0121B1042905D04E
:101A5000082923D105E0294D056022E0274D0560C6
:101A60001FE0254D6D6805F47012234D6D6805F477
:101A70008034022505EB92421CB9214D5543056087
:101A80000BE01D4D6D6805F400351DB11C4D55432F
:101A9000056002E0194D5543056002E0174D0560F1
:101AA00000BF00BF144D6D6805F0F0010909154D28
:101AB0006B5C0568DD4045600F4D6D6805F4E061C5
:101AC000090A104D6B5C4568DD4085600A4D6D6804
:101AD00005F46051C90A0B4D6B5C4568DD40C5607B
:101AE000054D6D6805F44041890B074D6B5CC56879
:101AF000B5FBF3F5056130BD0010024000127A001D
:101B000000093D00340000204400002010B50146CB
:101B10000022002300204A11012A02D1094C236827
:101B200006E0022A02D1074C236A01E0054C636AF1
:101B300001F01F02012494401C400CB1012000E080
:101B4000002010BD001002400248406800F00C0068
:101B5000704700000010024001460020034A506810
:101B600020F0F00008435060704700000010024071
:101B70000149086070470000000042420146002011
:101B8000034A506820F4E06008435060704700004A
:101B90000010024001460020034A506820F46050C3
:101BA00040EAC100506070470010024001490866D9
:101BB000704700000000424202460020044B586873
:101BC00020F47C1042EA01031843014B586070472F
:101BD0000010024001460020034A506820F0030034
:101BE00008435060704700000010024000210821A7
:101BF00017E000F0800222B14FF400420A4B1A6055
:101C000004E04FF40042084B1B1D1A604FF40052D1
:101C1000054B1B1D1A601B1F1A604206100E4A1E40
:101C2000D1B20029E5DC7047100C0140704710B5B7
:101C300000F002F810BD00001CB5002001900090DB
:101C40003448006840F480303249086000BF3148B1
:101C5000006800F4003000900198401C019000984A
:101C600018B90198B0F5A06FF1D12A48006800F4C6
:101C7000003010B10120009001E000200090009899
:101C8000012844D12448006840F01000224908602F
:101C90000846006820F0030008600846006840F02D
:101CA000020008601B4840681A49486008464068BE
:101CB00048600846406840F48060486008464068D4
:101CC00020F47C1048600846406840F4E810486002
:101CD0000846006840F08070086000BF0D4800684A
:101CE00000F000700028F9D00A48406820F0030096
:101CF000084948600846406840F00200486000BF5C
:101D00000448406800F00C000828F9D101E0FFF712
:101D10003BFE1CBD00100240002002402DE9FF4F99
:101D200083B0064688469146DDE91147109DB246CC
:101D30004FF0000B71E0BBF1000F40D104EBD47108
:101D4000384A1288A2EB6101B14204DB3549498867
:101D5000091B414502DA07B0BDE8F08F28788028DA
:101D600002DD4FF0010B58E028780D2806D108EB72
:101D700004001FFA80F856466D1C1EE0102C0DDD85
:101D8000102128788DE883004A4641463046069B5C
:101D9000FFF714FA06F1080086B20EE028788DE805
:101DA00091004A4641463046069BFFF707FA204617
:101DB00004EBD07106EB61018EB26D1C2DE0194869
:101DC0000088001BB04204DB16484088001B4045D9
:101DD00000DAC0E74FF0000B202C08D1CDE9005706
:101DE0004A4641463046069BFEF73AFF12E0182C61
:101DF00008D1CDE900574A4641463046069BFEF7DA
:101E00008FFE07E0CDE900574A4641463046069B23
:101E1000FEF7EEFDAD1C301986B2287800288AD175
:101E200000BF98E74C0100200C480068401C0B499B
:101E300008600B480068401C0949086009480068B0
:101E4000401C0849086008480068401C06490860B2
:101E500006480068401C05490860704708000020DB
:101E600010000020180000202000002004000020A6
:101E700070B501460A46501EB0F1807F00D31BE0CA
:101E8000501E4FF0E023586158170F23002804DB41
:101E90001C07250E094C255406E01C07260E084C8D
:101EA00000F00F052D1F665500BF00204FF0E02306
:101EB00098610720186100BF70BD000000E400E0D9
:101EC00018ED00E010B51348006840F0010011491A
:101ED000086008464068104908400E4948600846B6
:101EE00000680E4908400B4908600846006820F465
:101EF000802008600846406820F4FE0048604FF4E7
:101F00001F008860FFF793FE4FF0006004490860EF
:101F100010BD0000001002400000FFF8FFFFF6FEB9
:101F200008ED00E021B1828942F40052828104E090
:101F300082894DF6FF731A40828170470246002065
:101F4000B1F5007F00D100BF13880B400BB1012019
:101F500000E00020704700002DE9F04786B00546FC
:101F60000E460024A24600BFA1460027B08900B15A
:101F700000BF2F462C8A4CF6FF700440F0880443C3
:101F80002C82AC894EF6F3100440B08831890843A6
:101F9000718908430443AC81AC8A4FF6FF4004408A
:101FA000B0890443AC8201A8FFF746FD1F48874271
:101FB00002D1DDF810A001E0DDF80CA0A88900F442
:101FC000004040B10AEBCA0000EB0A10316849003A
:101FD000B0FBF1F807E00AEBCA0000EB0A10316829
:101FE0008900B0FBF1F86420B8FBF0F0040120098F
:101FF000642101FB1089A88900F4004040B132201F
:1020000000EBC900B0FBF1F000F00700044308E06A
:10201000322000EB09106421B0FBF1F000F00F005A
:1020200004432C8106B0BDE8F08700000038014071
:10203000C1F308028280704700BFFEE770B5054615
:102040000E46002404E0285D00F0C2FC601CC4B20F
:10205000B442F8DD70BD00000FB4054B10B503A904
:10206000044A029800F02CF810BC5DF814FB000044
:102070000D240008480000200FB4084B10B504A937
:1020800002AA039800F01CF8044602A9002000F000
:10209000B8F9204610BC5DF814FB000003240008CA
:1020A00002E008C8121F08C1002AFAD17047704721
:1020B000002001E001C1121F002AFBD1704700007F
:1020C0002DE9FF4F8BB088460546002606E02528FF
:1020D0000BD0DDE90D1290476D1C761C2878002886
:1020E000F5D10FB03046BDE8F08F0024A146A246DE
:1020F0000122AE4900E0044315F8013F203B02FAFB
:1021000003F00842F7D128782A2810D06FF02F0268
:102110002878A0F13001092915D809EB890102EBD3
:10212000410144F0020400EB01096D1CF0E758F88E
:10213000041B5FEA010903D544F40054C9F1000906
:1021400044F002046D1C28782E2817D115F8010FD1
:1021500044F004042A280ED06FF02F022878A0F152
:10216000300109290AD80AEB8A0102EB410100EB90
:10217000010A6D1CF2E758F804AB6D1C28786C2836
:102180000FD006DC4C2817D068280DD06A2814D14F
:1021900004E0742810D07A280FD10DE044F4001424
:1021A0000AE044F4801401E044F440146978814268
:1021B00002D104F580146D1C6D1C2878692865D047
:1021C00006DC00288DD0632827D0642806D15DE086
:1021D0006E2808D073282AD0752877D0DDE90D1233
:1021E0009047761CE0E0C4F30250022809D003288F
:1021F0000DD0D8F8001004280DD00E6008F10408A6
:10220000D2E0D8F80010F217C1E90062F6E7D8F87A
:1022100000100E80F2E70E70F0E718F8041B8DF83E
:10222000001000208DF80100EB46012003E058F873
:1022300004BB4FF0FF3061074FF0000701D40AE004
:102240007F1C57450DDA8742FADB1BF8071000297F
:10225000F6D106E07F1C8742FCDB1BF80710002943
:10226000F8D1DDE90D23A9EB07008146214600F0F6
:10227000B1F83044C61904E0DDE90D121BF8010B7A
:1022800090477F1EF8D22146484688E058F8040B54
:10229000C4F302514FF00A0B032900D100B2042904
:1022A00000D140B2002802DA40422D2102E021058F
:1022B00005D52B218DF82410012104E006E0E1076B
:1022C00010D02021F6E708AF089113E058F8040B6E
:1022D000C4F302514FF00A0B032900D180B2042944
:1022E00000D1C0B20021EEE75946FDF746FF30317C
:1022F00007F8011D0028F7D1ADEB070000F1200B16
:10230000600702D524F4803401E04FF0010ADA4579
:1023100002DDAAEB0B0000E00020824600EB0B017F
:1023200008980144A9EB01000A90E00306D4DDE916
:102330000D2321460A9800F04DF806444FF000099D
:1023400008E009A911F80900DDE90D12904709F12B
:102350000109761C08998945F3DBE0030CD5DDE91A
:102360000D2321460A9800F035F8064404E0DDE923
:102370000D1230209047761CBAF10001AAF1010A33
:10238000F5DC05E0DDE90D1217F8010B9047761C2E
:10239000BBF10001ABF1010BF4DC0A982146DDE949
:1023A0000D2300F005F806446D1C97E6092801008E
:1023B0002DE9F041044600251E461746880404D442
:1023C00005E039462020B0476D1C641EF9D528462B
:1023D000BDE8F0812DE9F041044600251E469046F7
:1023E000C80301D5302700E02027880404D505E084
:1023F00041463846B0476D1C641EF9D52846BDE8F5
:10240000F0810A68531C0B601070704770B5044669
:102410000D4600BF40210548FFF790FD0028F9D088
:10242000A1B20248FFF704FE204670BD003801400B
:102430008CB04FF4A06101F00702D14B18684FF641
:10244000FF031840CF4B034343EA0220CC4B1860F4
:1024500000BFFEF7A9FC49F64040FFF709FDFEF773
:10246000EBFFFEF747FDFDF7CFFE00F031FA00F07D
:102470006FFAC5A0FFF7F0FD00201021C4A24FF6AF
:10248000FF73CDE900210290024601464120FFF78B
:1024900045FCC3481D231A46282100901420FFF74D
:1024A000FDF900201021BFA24FF6FF73CDE90021F6
:1024B0000290024628215020FFF730FCBD481A2325
:1024C0001D22502100901420FFF7E8F90020102170
:1024D000B9A24FF6FF73CDE90021029002465021C8
:1024E0000846FFF71BFCB3481A231D2278210090F1
:1024F0001420FFF7D3F900201021B4A24FF6FF7388
:10250000CDE900210290024678215020FFF706FC19
:10251000A8481A231D22A02100901420FFF7BEF91D
:1025200000201021AEA24FF6FF73CDE900210290EA
:102530000246A0215020FFF7F1FB9E481A231D22DE
:10254000C82100901420FFF7A9F900201021A9A2AA
:102550004FF6FF73CDE9002102900246C8215020BA
:10256000FFF7DCFB93481A231D22F0210090142072
:10257000FFF794F900201021A3A24FF6FF73CDE9D5
:10258000002102900246F0215020FFF7C7FB894846
:102590001A231D224FF48C7100901420FFF77EF94E
:1025A000002010219DA24FF6FF73CDE9002102907B
:1025B00002464FF48C715020FFF7B0FBFDF7FEFE92
:1025C0009BA0FFF749FD4FF4FA70FEF7F1F89C4A23
:1025D000A2F58171A1F58170FFF7F2F8CFE099487B
:1025E000006898494968884204D9FEF7F9FE00203E
:1025F000944908609448006893494968884206D91C
:10260000FEF7DEFB9149087000208F490860904872
:1026100000688F494968884204D9FDF7CFFF002040
:102620008B4908608B4800688A49496888424CD9C0
:1026300089480078401C88490870FEF713F8FDF7B8
:10264000C5FD8548007802283CDB022082490870DD
:102650008248427882A104A8FFF70EFD00201021D5
:1026600004AA4FF6FF73CDE9002102900246C8216B
:102670009620FFF753FB794802787BA104A8FFF767
:10268000FBFC0020102104AA4FF6FF73CDE90021C6
:1026900002900246F0219620FFF740FB7448028822
:1026A00074A104A8FFF7E8FC0020102104AA4FF64B
:1026B000FF73CDE90021029002464FF48C71962001
:1026C000FFF72CFB0020634908606048007830B1B8
:1026D0005E4801786AA0FFF7BFFCFEF797FE5E48F0
:1026E000007801284BD14FF6FF70FEF7A1FB2C4874
:1026F0001D231A461E2100901420FFF7CFF800205A
:10270000102163A24FF6FF73CDE90021029002462B
:102710001E213C20FFF702FB0020102161A24FF692
:10272000FF73CDE900210290024664213220FFF7B9
:10273000F5FA002010215EA24FF6FF73CDE90021CB
:10274000029002468C215020FFF7E8FA5D481D23D5
:102750001A46C82100901420FFF7A0F85A481A23FF
:102760001D22F02100901420FFF798F857481C23F1
:102770001E224FF48C7100901420FFF78FF82EE783
:102780000CED00E00000FA05BFAACABC0D0A00006B
:10279000D6A3D6DDC7E1B9A4D2B5B4F3D1A7000062
:1027A00080700008D6C7C4DCCEEFC1AA3230303406
:1027B0000000000090690008CDF5CEC4B3AC203510
:1027C000343030373133303431380000D0A220205B
:1027D000D0F92035343030373133303431390000DE
:1027E000D0EDD4F3C1FA20353430303731333034C2
:1027F00032310000D1EEBCCEBAC020353430303793
:102800003133303432320000D1EED7D3CBB620355D
:10281000343030373133303432330000D5C5B5C2AF
:10282000D565203534303037313330343234000020
:10283000737461727420636F6E6E6563740D0A0049
:102840005E0300200800002010000020010000208E
:102850002000002018000020000000202E00002092
:1028600074656D703A2564006875696D3A25640079
:10287000300000206C696768743A2564000000002D
:102880006B6579566C75653A25640D0A0000000089
:10289000D6C7C4DCB0A2C0EFD4C6BCD2BED3CFB5BD
:1028A000CDB3000057656C636F6D652100000000BB
:1028B000D6C7C4DCCEEFC1AACBC4B0E0B5DA31D7FD
:1028C000E9000000FE6200088A5600086E5C0008FD
:1028D00000B585B001210420FFF746F801218803E7
:1028E000FFF742F818208DF813004FF40070ADF890
:1028F000100003208DF8120004A91348FDF792FF81
:1029000004208DF813000002ADF8100004A90E4851
:10291000FDF788FF4FF4614000900020ADF80C00F7
:102920000C20ADF80A000020ADF80800ADF8060054
:10293000ADF8040069460548FFF70EFB0121034886
:10294000FFF7F0FA05B000BD000801400038014073
:1029500000B585B001210420FFF706F801214804E5
:10296000FEF7F2FF18208DF813000420ADF81000D8
:1029700003208DF8120004A91348FDF753FF04202B
:102980008DF813000820ADF8100004A90E48FDF7DB
:1029900049FF4FF4614000900020ADF80C000C207E
:1029A000ADF80A000020ADF80800ADF80600ADF85B
:1029B000040069460548FFF7CFFA01210348FFF7F5
:1029C000B1FA05B000BD000000080140004400401D
:1029D00010B5044600BF40210448FFF7AFFA0028B5
:1029E000F9D021460148FFF723FB10BD0044004009
:1029F000014601F00F010A2902DA01F1300001E07D
:102A000001F1570040B270472DE9F043BDB00646D2
:102A1000884615461F46DDF810910EB105B117B96D
:102A20003DB0BDE8F083B9F1400F00DDF8E740218B
:102A300016A8FDF790FB402106A8FDF78CFB4A463F
:102A4000394616A8FDF76EFB4A46394606A8FDF73B
:102A500069FB00240CE016A8005D80F0360016A982
:102A6000085506A8005D80F05C0006A90855641CA6
:102A7000402CF0DB26A800F0AFF826A801F042FDBC
:102A8000402216A926A801F053FD4246314626A849
:102A900001F04EFD01A926A800F02AF826A800F0B2
:102AA0009BF826A801F02EFD402206A926A801F0D9
:102AB0003FFD142201A926A801F03AFD01A926A88C
:102AC00000F016F800240FE001A9095D0811FFF7D6
:102AD0008FFF05F8140001A9085DFFF789FF0121A8
:102AE00001EB44016854641C142CEDDB00BF97E734
:102AF0002DE9FC4704460D462068400F616840EA16
:102B0000C1062068C700300E8DF80000300C8DF82B
:102B10000100300A8DF80200F0B28DF80300380E83
:102B20008DF80400380C8DF80500380A8DF8060081
:102B3000F8B28DF80700207800F03F08B8F1380FA0
:102B400002D2C8F1380001E0C8F1780081464A4657
:102B50002049204601F0ECFC08226946204601F09D
:102B6000E7FCA068000E2870A068000C687020893F
:102B7000000AA870207AE870E068000E2871E0680A
:102B8000000C6871A089000AA871207BE871206997
:102B9000000E28722069000C6872208A000AA87250
:102BA000207CE8726069000E28736069000C68730D
:102BB000A08A000AA873207DE873A069000E28741B
:102BC000A069000C6874208B000AA874207EE87449
:102BD000BDE8FC871277000810B504465C2120464A
:102BE000FDF7B9FA10BD00002DE9F04390B007469B
:102BF0000E4696F800C04FEA0C6C96F801804CEA3D
:102C0000084C96F802804CEA082C96F803804CEAAF
:102C1000080CCDF800C096F804C04FEA0C6C96F88A
:102C200005804CEA084C96F806804CEA082C96F889
:102C300007804CEA080CCDF804C096F808C04FEAAB
:102C40000C6C96F809804CEA084C96F80A804CEA1D
:102C5000082C96F80B804CEA080CCDF808C096F8C2
:102C60000CC04FEA0C6C96F80D804CEA084C96F8B4
:102C70000E804CEA082C96F80F804CEA080CCDF830
:102C80000CC096F810C04FEA0C6C96F811804CEA14
:102C9000084C96F812804CEA082C96F813804CEAFF
:102CA000080CCDF810C096F814C04FEA0C6C96F8DA
:102CB00015804CEA084C96F816804CEA082C96F8D9
:102CC00017804CEA080CCDF814C096F818C04FEAEB
:102CD0000C6C96F819804CEA084C96F81A804CEA6D
:102CE000082C96F81B804CEA080CCDF818C096F812
:102CF0001CC04FEA0C6C96F81D804CEA084C96F804
:102D00001E804CEA082C96F81F804CEA080CCDF87F
:102D10001CC096F820C04FEA0C6C96F821804CEA53
:102D2000084C96F822804CEA082C96F823804CEA4E
:102D3000080CCDF820C096F824C04FEA0C6C96F829
:102D400025804CEA084C96F826804CEA082C96F828
:102D500027804CEA080CCDF824C096F828C04FEA2A
:102D60000C6C96F829804CEA084C96F82A804CEABC
:102D7000082C96F82B804CEA080CCDF828C096F861
:102D80002CC04FEA0C6C96F82D804CEA084C96F853
:102D90002E804CEA082C96F82F804CEA080CCDF8CF
:102DA0002CC096F830C04FEA0C6C96F831804CEA93
:102DB000084C96F832804CEA082C96F833804CEA9E
:102DC000080CCDF830C096F834C04FEA0C6C96F879
:102DD00035804CEA084C96F836804CEA082C96F878
:102DE00037804CEA080CCDF834C096F838C04FEA6A
:102DF0000C6C96F839804CEA084C96F83A804CEA0C
:102E0000082C96F83B804CEA080CCDF838C096F8B0
:102E10003CC04FEA0C6C96F83D804CEA084C96F8A2
:102E20003E804CEA082C96F83F804CEA080CCDF81E
:102E30003CC0B868F9683A697B69BC694FEA401CD4
:102E40004CEAD06882EA030C0CEA010C8CEA030C11
:102E5000C444DFF8F88FC444DDF80080C4446444FF
:102E60004FEA817C4CEA91014FEA441C4CEAD46859
:102E700081EA020C0CEA000C8CEA020CC444DFF874
:102E8000CC8FC444DDF80480C44463444FEA807CA2
:102E90004CEA90004FEA431C4CEAD36880EA010CEC
:102EA0000CEA040C8CEA010CC444DFF8A08FC44483
:102EB000DDF80880C44462444FEA847C4CEA940400
:102EC0004FEA421C4CEAD26884EA000C0CEA030C7C
:102ED0008CEA000CC444DFF8748FC444DDF80C8025
:102EE000C44461444FEA837C4CEA93034FEA411C9B
:102EF0004CEAD16883EA040C0CEA020C8CEA040C5C
:102F0000C444DFF8488FC444DDF81080C4446044F2
:102F10004FEA827C4CEA92024FEA401C4CEAD068AD
:102F200082EA030C0CEA010C8CEA030CC444DFF8BF
:102F30001C8FC444DDF81480C44464444FEA817C8F
:102F40004CEA91014FEA441C4CEAD46881EA020C35
:102F50000CEA000C8CEA020CC444DFF8F08EC44486
:102F6000DDF81880C44463444FEA807C4CEA90004A
:102F70004FEA431C4CEAD36880EA010C0CEA040CCB
:102F80008CEA010CC444DFF8C48EC444DDF81C8014
:102F9000C44462444FEA847C4CEA94044FEA421CE5
:102FA0004CEAD26884EA000C0CEA030C8CEA000CB0
:102FB000C444DFF8988EC444DDF82080C4446144E2
:102FC0004FEA837C4CEA93034FEA411C4CEAD168F8
:102FD00083EA040C0CEA020C8CEA040CC444DFF80B
:102FE0006C8EC444DDF82480C44460444FEA827C83
:102FF0004CEA92024FEA401C4CEAD06882EA030C89
:103000000CEA010C8CEA030CC444DFF8408EC44483
:10301000DDF82880C44464444FEA817C4CEA910185
:103020004FEA441C4CEAD46881EA020C0CEA000C1A
:103030008CEA020CC444DFF8148EC444DDF82C8002
:10304000C44463444FEA807C4CEA90004FEA431C3E
:103050004CEAD36880EA010C0CEA040C8CEA010CFF
:10306000C444DFF8E88DC444DDF83080C4446244D1
:103070004FEA847C4CEA94044FEA421C4CEAD26842
:1030800084EA000C0CEA030C8CEA000CC444DFF860
:10309000BC8DC444DDF83480C44461444FEA837C71
:1030A0004CEA93034FEA411C4CEAD16883EA040CD2
:1030B0000CEA020C8CEA040CC444DFF8908DC44482
:1030C000DDF83880C44460444FEA827C4CEA9202C6
:1030D0004FEA401C4CEAD06882EA030C0CEA010C6F
:1030E0008CEA030CC444DFF8648DC444DDF83C80F2
:1030F000C44464444FEA817C4CEA9101DDF834C059
:10310000DDF820808CEA080CDDF808808CEA080CD9
:10311000DDF800808CEA08054FEA450C4CEAD578CA
:103120004FEA441C4CEAD46981EA020C0CEA000C18
:103130008CEA020CCC44DFF8149DCC44C4446344B4
:10314000CDF800804FEA807C4CEA9000DDF838C072
:10315000DDF824808CEA080CDDF80C808CEA080C81
:10316000DDF804808CEA08054FEA450C4CEAD57876
:103170004FEA431C4CEAD36980EA010C0CEA040CC8
:103180008CEA010CCC44DFF8C49CCC44C4446244B7
:10319000CDF804804FEA847C4CEA9404DDF83CC00E
:1031A000DDF828808CEA080CDDF810808CEA080C29
:1031B000DDF808808CEA08054FEA450C4CEAD57822
:1031C0004FEA421C4CEAD26984EA000C0CEA030C78
:1031D0008CEA000CCC44DFF8749CCC44C4446144B9
:1031E000CDF808804FEA837C4CEA9303DDF800C0F9
:1031F000DDF82C808CEA080CDDF814808CEA080CD1
:10320000DDF80C808CEA08054FEA450C4CEAD578CD
:103210004FEA411C4CEAD16983EA040C0CEA020C27
:103220008CEA040CCC44DFF8249CCC44C4446044B5
:10323000CDF80C804FEA827C4CEA9202DDF804C0A3
:10324000DDF830808CEA080CDDF818808CEA080C78
:10325000DDF810808CEA08054FEA450C4CEAD57879
:103260004FEA401C4CEAD06981EA020C8CEA030C5C
:10327000CC44DFF8DC9BCC44C4446444CDF81080DB
:103280004FEA817C4CEA9101DDF808C0DDF834801A
:103290008CEA080CDDF81C808CEA080CDDF8148040
:1032A0008CEA08054FEA450C4CEAD5784FEA441CF5
:1032B0004CEAD46980EA010C8CEA020CCC44DFF8B9
:1032C000909BCC44C4446344CDF814804FEA807C86
:1032D0004CEA9000DDF80CC0DDF838808CEA080C70
:1032E000DDF820808CEA080CDDF818808CEA0805EF
:1032F0004FEA450C4CEAD5784FEA431C4CEAD369B7
:1033000084EA000C8CEA010CCC44DFF8449BCC44EA
:10331000C4446244CDF818804FEA847C4CEA94049B
:10332000DDF810C0DDF83C808CEA080CDDF8248064
:103330008CEA080CDDF81C808CEA08054FEA450C85
:103340004CEAD5784FEA421C4CEAD26983EA040C75
:103350008CEA000CCC44DFF8F89ACC44C4446144B5
:10336000CDF81C804FEA837C4CEA9303DDF814C04F
:10337000DDF800808CEA080CDDF828808CEA080C67
:10338000DDF820808CEA08054FEA450C4CEAD57838
:103390004FEA411C4CEAD16982EA030C8CEA040C26
:1033A000CC44DFF8AC9ACC44C4446044CDF82080CF
:1033B0004FEA827C4CEA9202DDF818C0DDF8048006
:1033C0008CEA080CDDF82C808CEA080CDDF82480EF
:1033D0008CEA08054FEA450C4CEAD5784FEA401CC8
:1033E0004CEAD06981EA020C8CEA030CCC44DFF889
:1033F000609ACC44C4446444CDF824804FEA817C74
:103400004CEA9101DDF81CC0DDF808808CEA080C5C
:10341000DDF830808CEA080CDDF828808CEA08059D
:103420004FEA450C4CEAD5784FEA441C4CEAD46983
:1034300080EA010C8CEA020CCC44DFF8149ACC44EC
:10344000C4446344CDF828804FEA807C4CEA900065
:10345000DDF820C0DDF80C808CEA080CDDF8348043
:103460008CEA080CDDF82C808CEA08054FEA450C44
:103470004CEAD5784FEA431C4CEAD36984EA000C45
:103480008CEA010CCC44DFF8C899CC44C4446244B3
:10349000CDF82C804FEA847C4CEA9404DDF824C0FB
:1034A000DDF810808CEA080CDDF838808CEA080C16
:1034B000DDF830808CEA08054FEA450C4CEAD578F7
:1034C0004FEA421C4CEAD26983EA040C8CEA000CF5
:1034D000CC44DFF87C99CC44C4446144CDF83080BE
:1034E0004FEA837C4CEA9303DDF828C0DDF81480B2
:1034F0008CEA080CDDF83C808CEA080CDDF834809E
:103500008CEA08054FEA450C4CEAD5784FEA411C95
:103510004CEAD16982EA030C8CEA040CCC44DFF853
:103520003099CC44C4446044CDF834804FEA827C66
:103530004CEA9202DDF82CC0DDF818808CEA080C09
:10354000DDF800808CEA080CDDF838808CEA08058C
:103550004FEA450C4CEAD5784FEA401C4CEAD0695A
:1035600081EA020C8CEA030CCC44DFF8E498CC44EA
:10357000C4446444CDF838804FEA817C4CEA910120
:10358000DDF830C0DDF81C808CEA080CDDF8048022
:103590008CEA080CDDF83C808CEA08054FEA450C03
:1035A0004CEAD5784FEA441C4CEAD46980EA010C15
:1035B0008CEA020CCC44DFF89898CC44C4446344B1
:1035C000CDF83C804FEA807C4CEA9000DDF834C0B6
:1035D000DDF820808CEA080CDDF808808CEA080C05
:1035E000DDF800808CEA08054FEA450C4CEAD578F6
:1035F0004FEA431C4CEAD36984EA000C8CEA010CC4
:10360000CC44DFF84C98CC44C4446244CDF80080EC
:103610004FEA847C4CEA9404DDF838C0DDF824805D
:103620008CEA080CDDF80C808CEA080CDDF80480CC
:103630008CEA08054FEA450C4CEAD5784FEA421C63
:103640004CEAD26983EA040C8CEA000CCC44DFF823
:103650000098CC44C4446144CDF804804FEA837C94
:103660004CEA9303DDF83CC0DDF828808CEA080CB6
:10367000DDF810808CEA080CDDF808808CEA08057B
:103680004FEA450C4CEAD5784FEA411C4CEAD16927
:1036900082EA030C8CEA040CCC44DFF8B497CC44E7
:1036A000C4446044CDF808804FEA827C4CEA920220
:1036B000DDF800C0DDF82C808CEA080CDDF8148001
:1036C0008CEA080CDDF80C808CEA08054FEA450C02
:1036D0004CEAD5784FEA401C4CEAD06981EA020CEA
:1036E0008CEA030CCC44DFF86897CC44C4446444AF
:1036F000CDF80C804FEA817C4CEA9101DDF804C0E2
:10370000DDF830808CEA080CDDF818808CEA080CB3
:10371000DDF810808CEA08054FEA450C4CEAD578B4
:103720004FEA441C4CEAD46980EA010C8CEA020C92
:10373000CC44DFF81C97CC44C4446344CDF81080DB
:103740004FEA807C4CEA9000DDF808C0DDF8348058
:103750008CEA080CDDF81C808CEA080CDDF814807B
:103760008CEA08054FEA450C4CEAD5784FEA431C31
:103770004CEAD36984EA000C8CEA010CCC44DFF8F3
:10378000D096CC44C4446244CDF814804FEA847C83
:103790004CEA9404DDF80CC0DDF838808CEA080CA3
:1037A000DDF820808CEA080CDDF818808CEA08052A
:1037B0004FEA450C4CEAD5784FEA421C4CEAD269F4
:1037C00083EA040C8CEA000CCC44DFF88496CC44E9
:1037D000C4446144CDF818804FEA837C4CEA9303DB
:1037E000DDF810C0DDF83C808CEA080CDDF82480A0
:1037F0008CEA080CDDF81C808CEA08054FEA450CC1
:103800004CEAD5784FEA411C4CEAD16982EA030CB4
:103810008CEA040CCC44DFF83896CC44C4446044B1
:10382000CDF81C804FEA827C4CEA92024FEA401CA1
:103830004CEAD06901EA020C41EA020808EA0308EE
:103840004CEA080CCC44DFF80C86E044DDF814C0E8
:10385000DDF800908CEA090CDDF828908CEA090C60
:10386000DDF820908CEA09054FEA450C4CEAD57C3E
:10387000CDF820C0C44464444FEA817C4CEA9101F5
:103880004FEA441C4CEAD46900EA010C40EA010802
:1038900008EA02084CEA080CCC44DFF8B885E0449A
:1038A000DDF818C0DDF804908CEA090CDDF82C90E6
:1038B0008CEA090CDDF824908CEA09054FEA450CE6
:1038C0004CEAD57CCDF824C0C44463444FEA807CE4
:1038D0004CEA90004FEA431C4CEAD36904EA000C1E
:1038E00044EA000808EA01084CEA080CCC44DFF876
:1038F0006485E044DDF81CC0DDF808908CEA090C12
:10390000DDF830908CEA090CDDF828908CEA090586
:103910004FEA450C4CEAD57CCDF828C0C44462443B
:103920004FEA847C4CEA94044FEA421C4CEAD26988
:1039300003EA040C43EA040808EA00084CEA080C0D
:10394000CC44DFF81085E044DDF820C0DDF80C90B1
:103950008CEA090CDDF834908CEA090CDDF82C9027
:103960008CEA09054FEA450C4CEAD57CCDF82CC011
:10397000C44461444FEA837C4CEA93034FEA411C00
:103980004CEAD16902EA030C42EA030808EA040897
:103990004CEA080CCC44DFF8BC84E044DDF824C0D9
:1039A000DDF810908CEA090CDDF838908CEA090CEF
:1039B000DDF830908CEA09054FEA450C4CEAD57CDD
:1039C000CDF830C0C44460444FEA827C4CEA920295
:1039D0004FEA401C4CEAD06901EA020C41EA0208B5
:1039E00008EA03084CEA080CCC44DFF86884E04499
:1039F000DDF828C0DDF814908CEA090CDDF83C9065
:103A00008CEA090CDDF834908CEA09054FEA450C84
:103A10004CEAD57CCDF834C0C44464444FEA817C80
:103A20004CEA91014FEA441C4CEAD46900EA010CCB
:103A300040EA010808EA02084CEA080CCC44DFF826
:103A40001484E044DDF82CC0DDF818908CEA090CF1
:103A5000DDF800908CEA090CDDF838908CEA090555
:103A60004FEA450C4CEAD57CCDF838C0C4446344D9
:103A70004FEA807C4CEA90004FEA431C4CEAD36941
:103A800004EA000C44EA000808EA01084CEA080CC1
:103A9000CC44DFF8C083E044DDF830C0DDF81C9092
:103AA0008CEA090CDDF804908CEA090CDDF83C90F6
:103AB0008CEA09054FEA450C4CEAD57CCDF83CC0B0
:103AC000C44462444FEA847C4CEA94044FEA421CAA
:103AD0004CEAD26903EA040C43EA040808EA000845
:103AE0004CEA080CCC44DFF86C83E044DDF834C0C9
:103AF000DDF820908CEA090CDDF808908CEA090CBE
:103B0000DDF800908CEA09054FEA450C4CEAD57CBB
:103B1000CDF800C0C44461444FEA837C4CEA93036F
:103B20004FEA411C4CEAD16902EA030C42EA03085D
:103B300008EA04084CEA080CCC44DFF81883E04497
:103B4000DDF838C0DDF824908CEA090CDDF80C9023
:103B50008CEA090CDDF804908CEA09054FEA450C63
:103B60004CEAD57CCDF804C0C44460444FEA827C62
:103B70004CEA92024FEA401C4CEAD06901EA020C7E
:103B800041EA020808EA03084CEA080CCC44DFF8D2
:103B9000C482E044DDF83CC0DDF828908CEA090CD2
:103BA000DDF810908CEA090CDDF808908CEA090524
:103BB0004FEA450C4CEAD57CCDF808C0C4446444B7
:103BC0004FEA817C4CEA91014FEA441C4CEAD469EB
:103BD00000EA010C40EA010808EA02084CEA080C75
:103BE000CC44DFF87082E044DDF800C0DDF82C90B2
:103BF0008CEA090CDDF814908CEA090CDDF80C90C5
:103C00008CEA09054FEA450C4CEAD57CCDF80CC08E
:103C1000C44463444FEA807C4CEA90004FEA431C62
:103C20004CEAD36904EA000C44EA000808EA0108F7
:103C30004CEA080CCC44DFF81C82E044DDF804C0F8
:103C4000DDF830908CEA090CDDF818908CEA090C4C
:103C5000DDF810908CEA09054FEA450C4CEAD57C5A
:103C6000CDF810C0C44462444FEA847C4CEA94040A
:103C70004FEA421C4CEAD26903EA040C43EA040806
:103C800008EA00084CEA080CCC44DFF8C881E0449C
:103C9000DDF808C0DDF834908CEA090CDDF81C90E2
:103CA0008CEA090CDDF814908CEA09054FEA450C02
:103CB0004CEAD57CCDF814C0C44461444FEA837CFF
:103CC0004CEA93034FEA411C4CEAD16902EA030C27
:103CD00042EA030808EA04084CEA080CCC44DFF87E
:103CE0007481E044DDF80CC0DDF838908CEA090CF2
:103CF000DDF820908CEA090CDDF818908CEA0905B3
:103D00004FEA450C4CEAD57CCDF818C0C444604459
:103D10004FEA827C4CEA92024FEA401C4CEAD0699E
:103D200001EA020C41EA020808EA03084CEA080C1E
:103D3000CC44DFF82081E044DDF810C0DDF83C9091
:103D40008CEA090CDDF824908CEA090CDDF81C9053
:103D50008CEA09054FEA450C4CEAD57CCDF81CC02D
:103D6000C44464444FEA817C4CEA91014FEA441C0C
:103D70004CEAD46900EA010C40EA010808EA0208AA
:103D80004CEA080CCC44DFF8CC80E044DDF814C0E9
:103D9000DDF800908CEA090CDDF828908CEA090C1B
:103DA000DDF820908CEA09054FEA450C4CEAD57CF9
:103DB000CDF820C0C44463444FEA807C4CEA9000B4
:103DC0004FEA431C4CEAD36904EA000C44EA0008B9
:103DD00008EA01084CEA080CCC44DFF87880E0449B
:103DE000DDF818C0DDF804908CEA090CDDF82C90A1
:103DF0008CEA090CDDF824908CEA09054FEA450CA1
:103E00004CEAD57CCDF824C0C44462444FEA847C9B
:103E10004CEA94044FEA421C4CEAD26903EA040CCF
:103E200043EA040808EA00084CEA080CCC44DFF82E
:103E30002480E044DDF81CC0DDF808908CEA090C11
:103E4000DDF830908CEA090C06E000009979825A7E
:103E5000A1EBD96EDCBC1B8FDDF828908CEA09053C
:103E60004FEA450C4CEAD57CCDF828C0C4446144E7
:103E70004FEA837C4CEA93034FEA411C4CEAD16938
:103E800002EA030C42EA030808EA04084CEA080CB8
:103E9000CC44DFF86886E044DDF820C0DDF80C9003
:103EA0008CEA090CDDF834908CEA090CDDF82C90D2
:103EB0008CEA09054FEA450C4CEAD57CCDF82CC0BC
:103EC000C44460444FEA827C4CEA9202DDF824C08C
:103ED000DDF810808CEA080CDDF838808CEA080CDC
:103EE000DDF830808CEA08054FEA450C4CEAD578BD
:103EF0004FEA401C4CEAD06981EA020C8CEA030CC0
:103F0000CC44DFF8FC95CC44C4446444CDF8308004
:103F10004FEA817C4CEA9101DDF828C0DDF814807D
:103F20008CEA080CDDF83C808CEA080CDDF8348063
:103F30008CEA08054FEA450C4CEAD5784FEA441C58
:103F40004CEAD46980EA010C8CEA020CCC44DFF81C
:103F5000B095CC44C4446344CDF834804FEA807CAF
:103F60004CEA9000DDF82CC0DDF818808CEA080CD3
:103F7000DDF800808CEA080CDDF838808CEA080552
:103F80004FEA450C4CEAD5784FEA431C4CEAD3691A
:103F900084EA000C8CEA010CCC44DFF86495CC4434
:103FA000C4446244CDF838804FEA847C4CEA9404DF
:103FB000DDF830C0DDF81C808CEA080CDDF80480E8
:103FC0008CEA080CDDF83C808CEA08054FEA450CC9
:103FD0004CEAD5784FEA421C4CEAD26983EA040CD9
:103FE0008CEA000CCC44DFF81895CC44C4446144FE
:103FF000CDF83C804FEA837C4CEA9303DDF834C073
:10400000DDF820808CEA080CDDF808808CEA080CCA
:10401000DDF800808CEA08054FEA450C4CEAD578BB
:104020004FEA411C4CEAD16982EA030C8CEA040C89
:10403000CC44DFF8CC94CC44C4446044CDF8008038
:104040004FEA827C4CEA9202DDF838C0DDF8248029
:104050008CEA080CDDF80C808CEA080CDDF8048092
:104060008CEA08054FEA450C4CEAD5784FEA401C2B
:104070004CEAD06981EA020C8CEA030CCC44DFF8EC
:104080008094CC44C4446444CDF804804FEA817CDD
:104090004CEA9101DDF83CC0DDF828808CEA080C80
:1040A000DDF810808CEA080CDDF808808CEA080541
:1040B0004FEA450C4CEAD5784FEA441C4CEAD469E7
:1040C00080EA010C8CEA020CCC44DFF83494CC4436
:1040D000C4446344CDF808804FEA807C4CEA9000E9
:1040E000DDF800C0DDF82C808CEA080CDDF81480C7
:1040F0008CEA080CDDF80C808CEA08054FEA450CC8
:104100004CEAD5784FEA431C4CEAD36984EA000CA8
:104110008CEA010CCC44DFF8E893CC44C4446244FC
:10412000CDF80C804FEA847C4CEA9404DDF804C09E
:10413000DDF830808CEA080CDDF818808CEA080C79
:10414000DDF810808CEA08054FEA450C4CEAD5787A
:104150004FEA421C4CEAD26983EA040C8CEA000C58
:10416000CC44DFF89C93CC44C4446144CDF8108027
:104170004FEA837C4CEA9303DDF808C0DDF8348015
:104180008CEA080CDDF81C808CEA080CDDF8148041
:104190008CEA08054FEA450C4CEAD5784FEA411CF9
:1041A0004CEAD16982EA030C8CEA040CCC44DFF8B7
:1041B0005093CC44C4446044CDF814804FEA827CD0
:1041C0004CEA9202DDF80CC0DDF838808CEA080C6D
:1041D000DDF820808CEA080CDDF818808CEA0805F0
:1041E0004FEA450C4CEAD5784FEA401C4CEAD069BE
:1041F00081EA020C8CEA030CCC44DFF80493CC4433
:10420000C4446444CDF818804FEA817C4CEA9101A3
:10421000DDF810C0DDF83C808CEA080CDDF8248065
:104220008CEA080CDDF81C808CEA08054FEA450C86
:104230004CEAD5784FEA441C4CEAD46980EA010C78
:104240008CEA020CCC44DFF8B892CC44C4446344FA
:10425000CDF81C804FEA807C4CEA9000DDF814C059
:10426000DDF800808CEA080CDDF828808CEA080C68
:10427000DDF820808CEA08054FEA450C4CEAD57839
:104280004FEA431C4CEAD36984EA000C8CEA010C27
:10429000CC44DFF86C92CC44C4446244CDF8208016
:1042A0004FEA847C4CEA9404DDF818C0DDF8048001
:1042B0008CEA080CDDF82C808CEA080CDDF82480F0
:1042C0008CEA08054FEA450C4CEAD5784FEA421CC7
:1042D0004CEAD26983EA040C8CEA000CCC44DFF887
:1042E0002092CC44C4446144CDF824804FEA837CBE
:1042F0004CEA9303DDF81CC0DDF808808CEA080C5A
:10430000DDF830808CEA080CDDF828808CEA08059E
:104310004FEA450C4CEAD5784FEA411C4CEAD1698A
:1043200082EA030C8CEA040CCC44DFF8D491CC4430
:10433000C4446044CDF828804FEA827C4CEA920263
:10434000DDF820C0DDF80C808CEA080CDDF8348044
:104350008CEA080CDDF82C808CEA08054FEA450C45
:104360004CEAD5784FEA401C4CEAD06981EA020C4D
:104370008CEA030CCC44DFF88891CC44C4446444F8
:10438000CDF82C804FEA817C4CEA9101DDF824C005
:10439000DDF810808CEA080CDDF838808CEA080C17
:1043A000DDF830808CEA08054FEA450C4CEAD578F8
:1043B0004FEA441C4CEAD46980EA010C8CEA020CF6
:1043C000CC44DFF83C91CC44C4446344CDF8308005
:1043D0004FEA807C4CEA9000DDF828C0DDF81480BC
:1043E0008CEA080CDDF83C808CEA080CDDF834809F
:1043F0008CEA08054FEA450C4CEAD5784FEA431C95
:104400004CEAD36984EA000C8CEA010CCC44DFF856
:10441000F090CC44C4446244CDF834804FEA847CAC
:104420004CEA9404DDF82CC0DDF818808CEA080C06
:10443000DDF800808CEA080CDDF838808CEA08058D
:104440004FEA450C4CEAD5784FEA421C4CEAD26957
:1044500083EA040C8CEA000CCC44DFF8A490CC4432
:10446000C4446144CDF838804FEA837C4CEA93031E
:10447000DDF830C0DDF81C808CEA080CDDF8048023
:104480008CEA080CDDF83C808CEA08054FEA450C04
:104490004CEAD5784FEA411C4CEAD16982EA030C18
:1044A0008CEA040CCC44DFF85890CC44C4446044FB
:1044B000CDF83C804FEA827C4CEA9202D7F808C0E3
:1044C0008444C7F808C0D7F80CC00CEB0108C7F843
:1044D0000C80D7F810C00CEB0208C7F81080D7F892
:1044E00014C00CEB0308C7F81480D7F818C00CEB05
:1044F0000408C7F8188010B0BDE8F083DCBC1B8F3F
:10450000D6C162CA00210160416006498160064A45
:10451000C260CA430261044AD2434261034A8261D3
:10452000704700000123456789ABCDEFF0E1D2C3AE
:104530002DE9F0410446884615460DB9BDE8F081E5
:10454000207800F03F07C7F140062068284420602B
:10455000206820602068A84202D26068401C606029
:1045600087B1B5420ED304F11C01C8193246414649
:10457000FBF7D8FD04F11C012046FEF735FBB044E3
:10458000AD1B002706E041462046FEF72DFB08F153
:104590004008403D402DF6D235B104F11C01C81948
:1045A0002A464146FBF7BEFD00BFC7E770B504468B
:1045B0000E463046FBF7DAFD05462946204600F058
:1045C0000FF82A4631462068FBF7ACFD20682844E6
:1045D000206070BD026811700268521C0260704752
:1045E00010B50A46CB1701EB13631B0A046823704E
:1045F0000268521C02600A46CB1701EB13631B12C0
:10460000A1EB0323046823700268521C026010BDF2
:104610001FB50446029800280DDD20460299FFF7D9
:10462000DFFFDDE902212068FBF77CFD20680299AD
:10463000084420600AE0019820B120460199FFF764
:10464000B5FF03E000212046FFF7CAFF1FBD0000B1
:10465000000000000000000000000000000000005A
:10466000000000000000000000000000000000004A
:10467000000000000000000000000000000000003A
:10468000000000000000000000000000000000002A
:104AD000000000000008080808080808000018186E
:104AE000000000486C2412000000000000000000DC
:104AF00000000000002424247F1212127F121212E0
:104B000000000000081C2A2A0A0C1828282A2A1C3F
:104B1000080800000022251515152A58545454225F
:104B200000000000000C1212120A76252911916E65
:104B30000000000606040300000000000000000062
:104B40000000004020101008080808080810102075
:104B5000400000020408081010101010100808048B
:104B600002000000000008086B1C1C6B0808000015
:104B7000000000000000080808087F080808080076
:104B80000000000000000000000000000000060619
:104B900004030000000000000000FE000000000010
:104BA00000000000000000000000000000000606F9
:104BB000000000008040402020101008080404027B
:104BC000020000000018244242424242424224189D
:104BD0000000000000080E08080808080808083E41
:104BE00000000000003C4242422020100804427EA7
:104BF00000000000003C4242201820404042221C9D
:104C00000000000000203028242422227E2020786A
:104C100000000000007E0202021A26404042221CD0
:104C20000000000000382402021A264242422418E2
:104C300000000000007E2222101008080808080862
:104C400000000000003C4242422418244242423C00
:104C50000000000000182442424264584040241CD6
:104C600000000000000000001818000000001818E4
:104C70000000000000000000000800000000000824
:104C8000080400000040201008040204081020401E
:104C900000000000000000007F0000007F00000016
:104CA0000000000000020408102040201008040248
:104CB00000000000003C424246402010100018183E
:104CC00000000000001C225A555555552D42221C4B
:104CD00000000000000808181414243C224242E797
:104CE00000000000001F2222221E22424242221FF8
:104CF00000000000007C4242010101010142221C2F
:104D000000000000001F2242424242424242221F53
:104D100000000000003F4212121E12120242423FE7
:104D200000000000003F4212121E1212020202078F
:104D300000000000003C2222010101712122221CFE
:104D40000000000000E7424242427E42424242E707
:104D500000000000003E0808080808080808083E8F
:104D600000000000007C1010101010101010101027
:104D7000110F0000007722120A0E0A121222227767
:104D80000000000000070202020202020202427F4B
:104D9000000000000077363636362A2A2A2A2A6B87
:104DA0000000000000E346464A4A525252626247FF
:104DB00000000000001C2241414141414141221CB0
:104DC00000000000003F424242423E02020202074F
:104DD00000000000001C2241414141414D53321C62
:104DE00060000000003F4242423E1212222242C7AF
:104DF00000000000007C4242020418204042423E73
:104E000000000000007F4908080808080808081C7E
:104E10000000000000E74242424242424242423C1D
:104E20000000000000E7424222242414141808085D
:104E300000000000006B494949495555362222229D
:104E40000000000000E7422424181818242442E738
:104E50000000000000772222141408080808081C2B
:104E600000000000007E2120101008040442423F90
:104E7000000000780808080808080808080808085A
:104E80007800000002020404080808101020202006
:104E90004040001E101010101010101010101010B4
:104EA0001E00003844000000000000000000000068
:104EB00000000000000000000000000000000000F2
:104EC00000FF0006080000000000000000000000D5
:104ED0000000000000000000003C4278444242FC18
:104EE0000000000000030202021A26424242261A73
:104EF00000000000000000000038440202024438B4
:104F0000000000000060404040784442424264D8C3
:104F10000000000000000000003C427E0202423C13
:104F20000000000000F08808087E08080808083E15
:104F30000000000000000000007C22221C023C4215
:104F4000423C000000030202023A4642424242E76B
:104F500000000000000C0C00000E08080808083EC5
:104F600000000000003030000038202020202020E9
:104F7000221E0000000302020272120A1612227799
:104F800000000000000E0808080808080808083E8D
:104F90000000000000000000007F9292929292B701
:104FA0000000000000000000003B4642424242E791
:104FB0000000000000000000003C42424242423C2F
:104FC0000000000000000000001B26424242221E9A
:104FD000020700000000000000784442424244788A
:104FE00040E000000000000000774C040404041FAF
:104FF0000000000000000000007C42023C40423EF5
:105000000000000000000008083E080808080830FA
:10501000000000000000000000634242424262DCE7
:10502000000000000000000000E7422424140808EB
:10503000000000000000000000EB49495555222205
:105040000000000000000000007624181818246EEC
:10505000000000000000000000E7422424141808AB
:105060000807000000000000007E22100808447EAF
:10507000000000C020202020201020202020202000
:10508000C000101010101010101010101010101080
:105090001010000608080808081008080808080882
:1050A00006000C32C20000000000000000000000FA
:1050B0000000CDF500007FFC0100010001000100AF
:1050C00001003FF8010001000100010001000100A2
:1050D000FFFE0000CEC4020001000100FFFE101020
:1050E00010100820082004400280010002800440C3
:1050F00008203018C006B3AC080009FC08447E4400
:1051000008440894FF0808FC288428842E8428FC7E
:10511000280058004FFE8000D0ED008020801080D5
:1051200011FC01200220F020102013FE102010207E
:1051300010201420182010200020D4F3000027F89D
:105140001208111080A0404041B0164E104023F8C4
:10515000E040204027FC204020400040C1FA0420CD
:10516000041004100400FFFE0480048804880490E6
:1051700008A008C0108211822282447E8000D0A242
:10518000020002083FD002200240FFFE01000200A0
:105190003FE0104020805FFC8080008002800100A2
:1051A000D0F91000100010FEFE102010281048103A
:1051B0007E1009FE08100E10F81048100810081094
:1051C0000810D5C50100F90809080910092079401F
:1051D000410047FE4140792009200910090809448F
:1051E00051822100B5C2104010402FFE404097FC74
:1051F00014A424A467FCA0002FFE20402024252214
:10520000250A290820F8D565202010101010FEFE70
:1052100000007C7C00007C7C00007C7C4444444496
:1052200044447C7C44440000D1EE100011F810107E
:105230001020FC40108031FE38925492549291120A
:1052400011221222144210941108D7D300007FF8C3
:1052500000100020004001800100FFFE010001005D
:10526000010001000100010005000200CBB60000B2
:1052700003FEFC20104011FC21043D04652465243C
:10528000A524252425443C50248821040204BCCEB6
:105290000100FFFE01003FF800001FF010101FF09A
:1052A0000820FFFE10007F7C11442144457C82448D
:1052B000BAC001007FFC00001FF010101FF00000BA
:1052C0007FFE40029FF40600192006C039B0068C0C
:1052D0003980D6C720003E7C48440844FF4414442B
:1052E000227C40001FF0101010101FF01010101042
:1052F0001FF01010C4DC104024444248FF700140ED
:1053000000427E42423E42007E44424842707E401D
:1053100042424A42443ECEEF10801080508050FC02
:105320007D545254905410941C94F12452241044EF
:105330001044108411281010C1AA0088FC4848505D
:10534000480079FC4820482078204BFE48204C50EB
:105350007850C888088809040A02D6A32200123EA1
:1053600014227F24082408280824FFA408220822E5
:10537000142212342128412080200020D6DD100480
:10538000108410841084108454A4529452949084F5
:105390001084108410842084208440048004C7E199
:1053A000200021FC2008FC10403050489084FF026F
:1053B000100011FC1C20F0205020102013FE1000C3
:1053C000B9A4000000007FFC010001000100010001
:1053D000010001000100010001000100FFFE0000CA
:1053E0000000D2B504400440044004404444244436
:1053F00024481448145014600440044004400440FD
:10540000FFFE0000B4F301000100010001000100F3
:10541000FFFE0100010002800280044004400820D9
:1054200010102008C006D1A7220811081110002072
:105430007FFE400280041FE000400180FFFE01006B
:105440000100010005000200B0A200007DFE44083A
:10545000480849E85128492849284528452845E869
:1054600069285008400840284010C0EF00003FF86D
:10547000210821083FF8210821083FF80100010018
:105480003FF8010001000100FFFE0000D4C600004B
:105490003FF80000000000000000FFFE02000400D2
:1054A00004000840102020107FF820080008BCD21B
:1054B000020001007FFE400280047FFC02000D0814
:1054C000719002A00CC071A006981886E2800100BD
:1054D000BED300003FF8200820083FF8208020803D
:1054E0003FFE208020802FF82808480848088FF8C1
:1054F0000808CFB500F83F000400082010403F80A6
:105500000100061018087FFC010409201110210871
:1055100045040200CDB310401020202023FE484057
:10552000F888110423FE4092F890409000901912E0
:10553000E112420E0400CBC4000000007FFC444492
:1055400044444444444444444844483C5004600473
:1055500040047FFC40040000B0E000800080F8BE02
:105560002288228822882288FABE228824882088DD
:105570003908E108423E04000800B5DA20403F7EC9
:10558000489085083FF8010801083FF821002100F4
:105590003FFC030405041928E1100100D7E91000BD
:1055A00011F8210821084908F9F8110821084108D3
:1055B000F9F8410801081908E10847FE0000C9EEA2
:1055C0000000000000001000000800080C7FFC0430
:1055D000401001C8A002186042301832231812C3CC
:1055E0000014030004030C047FF0080F80080B4034
:1055F00078136018332018631818831C19030818CF
:105600000300000300000000D7D6000000000006E1
:105610000000000300000000C0000001C0C0000145
:1056200007C00001FF00021FFE0007F01C0007C0BA
:1056300070000F00E0000E03F0001C0FF0003C0FA4
:1056400070003C00E0001800C0000000C000000036
:10565000C0000000600000002000000037000001D2
:10566000FF00007FF80007F830001F803000008046
:10567000300000C03000006060000018E000000F43
:10568000C0000006000000000000FFDFFFDFFFFF9A
:10569000FFFFFFFFFFFFEFFFDFFFC7FFEFFFF7FF9A
:1056A000F7FFE7FF657B655AFFDFFFFFFFFFFFFFA7
:1056B000FFFEFFFEF7FEF7FFF7FFFFFEFFFFFFFF16
:1056C000FFFEFFFEFFDFFFFFFFFFFFFFF7DFF7FF3C
:1056D000EFFF85DB4C55B6DDEFFFF7FFE7FF3C57EB
:1056E0004CF9FFFFFFFFFFBEFFFFFFFFF7FEFFFECE
:1056F000FFFFFFFFFFFFFFFFFFFFFFFFF7FEFFFFC3
:10570000FFFFFFFFFFFFFFFFF7FFBF5F447634158A
:105710005CF7DFFFEFFFE7FF34583458FFFFF7BFB8
:10572000FFFFFFDFFFDFFFFFFFFFFFDFFFFFFFFFE9
:10573000FFFFFFDFFFFFFFFFFFFFFFFFFFFFFFFF99
:10574000FFFFE7FF759A3436555B3477865DEFFFD0
:10575000E7FF553B3458EFFFF7FFFFFFFF9FFF9F29
:10576000FFFFFFFFFFFFFFFFFFFFFFFFFFDFFFDF89
:10577000FFFFFFFFFFFFFFFFFFDFFFFF653A3C5723
:10578000A6FFCFFF4D5B34778E3BDFFFBFBF54B822
:105790009F1FDFFFE7FFEFFFEFFFEFFFEFFFB71FF9
:1057A000965CCF9FEFFFF7FFF7BFFFFFFFFFFFFF05
:1057B000FFFFFFFFF7FF3416657BE7FFE7FFAF7FD3
:1057C00034364CD7B7DFDFFFA69D347665DBA75FA5
:1057D000AF9F9EDF75FC44B7345734983CB67E1BB0
:1057E000D7FFF7FFF7DFFFFFFFFFFFFFF7FFDFFF49
:1057F0003C36AF3FF7FFF7FFE7FF75BB3457763D09
:10580000E7FFEFFF54F83C7634763C5634363C776D
:105810003C765D7B769F3CF73C978E7EDFDFFFFF1B
:10582000FFFFF7DFFFFFEFFF967E75BADFFFFFFF99
:10583000FFFFF7FFBF5F34783457CF9FF7FFDFDFFD
:105840009E7D6558655975BAB71EDFDFE7FFE7FF34
:10585000B75F3C3654D8E7FFFFFFFFFFFFFFF7FFBE
:10586000CFBF4CD8BF7FEFFFFFFFFFFFFFFFEFFF72
:1058700075FD347785D9E7FFFFFFEFFFE7FFDFFF17
:10588000DFFFF7FFFFFFFFFFF7DFE7FF657A3C353C
:10589000AEBCF7FFFFDEFFFFE7FF965D3435E7FFA5
:1058A000F7FFFFFFFFDFFFDFEFFFB75F44763C55F9
:1058B000B77FFFFFFFFFF7FFF7FFF7FFF7DFFFFF00
:1058C000FFFFFFFFEFFF96BF3C368DFBE7FFFFFFBB
:1058D000F7FFBF5F44554475EFFFFFFFFFFFFFFF7A
:1058E000FFFFF7FFE7FF85FC2C1675DCFFFFFFFFCE
:1058F000FFFFFFFFFFFFFFFFFFFFFFFFFFFFEFFFC8
:10590000BF9F3C155496CFFFFFFFEFFF863D3C76CF
:10591000965CF7FFF7FFFFFFFFFFF7DFF7FFF7FFEB
:10592000CF9F4CF93457F7FFFFFFFFFFF7FFFFFF53
:10593000FFFFF7FFEFFFDF9FF7FFDFFF7DDA445543
:10594000869EF7FFD7DF44983C57C79FF7FFFFFFBE
:10595000FFFFFFFFFFFFFFFFF7DFEFFF869F2C3604
:10596000E7FFFFFFFFFFFFFFFFFFFFFFF7FFB6FEB1
:105970005434E7FFE7FFD7FF7599B7BFD7FF6D59DD
:1059800034359F1FEFFFFFFFFFDFFFFFFFFEFFDE4E
:10599000FFDEFFFFF7FFE7FF75798E9EEFFFFFFF4A
:1059A000FFFFF7FFF7FFB71D349724795D7CDFFF1A
:1059B000F7FFFFFFFFFF9F7F3C754CD6D7FFFFFF30
:1059C000FFFFFFFFFFFFFFFFFFDFFFFFFFDFFFFF27
:1059D000F7FFB6DD553AE7FFFFFFFFFFEFFFDFFF01
:1059E0006DB83C557E9F3477AEFFE7FFF7FFFFDFD2
:1059F0007EDF3C7675D9E7FFFFFFFFFFFFFFFFFF6C
:105A0000FFFFFFFFFFFFFFFFFFFFFFFFD7BF349840
:105A1000CF7FF7FFFFFFEFFFA73F3C755CD7CFFFBE
:105A20003C556538DFFFF7FFFFFF663F3C57A69EFA
:105A3000EFFFF7FFFFFFFFFFFFFFFFFFFFFFFFFF8E
:105A4000FFFFF7FFF7FFE7FF3477AEDEF7FFF7FF63
:105A5000E7FF659C34379E3DEFFF75B9343596FFFF
:105A6000EFFFFFDF455D3437CF7FF7DFF7FFF7FF4D
:105A7000FFFFFFFFFFFFFFFFFFFFFFFFF7FFF7FF46
:105A8000E7FF34568DFBE7FFE7FFB71E3457553B62
:105A9000E7FFF7FFBF5E3C754CF8E7FFFFFF24BC54
:105AA0002C38EFFFFFFFF7FFF7FFFFFFFFFFFFFFC0
:105AB000FFFFFFFFF7FFF7FFF7FFEFFF3C577538DA
:105AC000DFFFDFFF863B34368E9FEFFFFFFFEFFFE8
:105AD00075DB4C95AEDCE7FF355E3438DF9FFFFFAA
:105AE000FFFFF7FFFFFFFFDFFFFFFFFFFFFFF7FFF6
:105AF000FFFFFFFFEFFF3C378DFADFFFB7BF3454E6
:105B00004476CFFFF7FFFFFFF7FFAEFF44136D377B
:105B1000DFFF6E7F3456AEDEEFFFFFFFFFFFFFFFBC
:105B2000FFFFFFFFFFFFFFFFFFDFFFFFFFDFF7FFCD
:105B30003C57B69DEFFF9F5F34767DD9E7FFF7FFB7
:105B4000F79FF7FFDFFF4C544C55C7FF86DF3C340F
:105B5000967DDFFFF7FFFFFFFFFFFFFFFFDFFFFF88
:105B6000FFFFFFFFFFFFFFFFEFFF3456D77FEFFF81
:105B70008E9F3C56A6BDEFFFF7FFFFFFF7FFDFFF4D
:105B800065173C35B7FFE7FF8E3B2C354D39D7FF06
:105B9000FFFFFFFFFFFFFFFFFFFFF7FFEFFFE7FF45
:105BA000B75F4435BF9FEFFFEFFFA6DF3BD58DBC4E
:105BB000DFFFEFFFEFFFEFFFA73F34563415C7FFBE
:105BC000F7FFE7FF5D382C154CD9E7FFF7FFF7FF2C
:105BD000F7FFEFDFEFFFDFFF7E1C34773476E7FF60
:105BE000EFDFF7FFC77F4C554436AF5FDFFFE7FFBE
:105BF000CFFF65DC34777559DFFFFFDFF7FFD7FF95
:105C0000659A3497967FAEDFC79FDFFFC7BF9EBE02
:105C10006DDC2C5634976DBAF7FFFFFFF7FFEFFFEF
:105C2000A67C3C5734376D7A863D4D182C77341559
:105C3000D7DFF7FFFFDFFFFFF7FFDFFF96FF2C380F
:105C40002C5934782C572479249924783CF8A71FB0
:105C5000E7FFFFFFFFFFF7DFFFFFEFFFAF5F3C98BE
:105C60002C771C7724F944F9C7DFF7FFFFDFFFFF2C
:105C7000FFFFFFFFFFFFFFBFFFFFF7FEF7FEFFFF86
:105C8000FFFFFFDFFFDDFFD9D56DDDCFFFDFFFBFFA
:105C9000FFFFFFFFFFFEFFFEFFFEFFFFFFFFFFFF17
:105CA000FFFFFFFFFFFFFFFFFFDFFFFFFFDFFFFF44
:105CB000FFDFFFDFFFDFFFFFF7FEFFFFFFFFFFDF7D
:105CC000FFDDFFD9C4ECD58EFFDFFFFFFFFFFFDE56
:105CD000FFFEFFFEFFFEFFFFF7DFFFFFFFFFFFFFFF
:105CE000FFFFFFFFFFFFFFFFFFFFFFFFFFFEFFDFE5
:105CF000FFDFFFFFFFFFFFFFFFFFFFFFFFDEFFB93B
:105D0000C4ABDDAFFFDDFFDFFFFFFFDFFFFFFFFE07
:105D1000FFFEFFFFFFFFFFFFFFFFFFFFFFFFFFFF94
:105D2000FFDFFFFFFFFFF7FEFFFEF73AFFDDFFFE9D
:105D3000FFDEFFFEFFFFFFDFFFDEFFDACCCCDDAFD3
:105D4000FFFDFFFFFFFFFFFFFFDEFFFDFFBBFF18B3
:105D5000FFBCFFFEFFFFFFFFFFFFFFFFFFFFFFFF97
:105D6000FFFFFFFEFFFCD54EEDD0FFDAFFFDFFFE8B
:105D7000FFFFFFFFFFDEFFBACCACDD90FFDEFFFFD1
:105D8000F7FFFFFFFFFFFFBBFE2FD4CAFEB6FFBD2C
:105D9000FFFFFFFFFFFFFFFFFFFFFFFFFFFFFFFF13
:105DA000FFDCE5CFBC48E60FFFF8FFFCFFFEFFFF7E
:105DB000FFDEFFB9DD2EE58FFFFCFFFEF7FEFFFDE6
:105DC000FFDBF611D467D488FEF6FFDDFFFFFFFF8F
:105DD000FFFFFFFFFFFFF7FEFFFFFFDFFFDFFFDB40
:105DE000E610C4E7E5ECFFF9FFFCFFFDFFBBFFD9C0
:105DF000FF55FF34FFFAFFFCFFFEFFBAF60ED48614
:105E0000DCC9FE93FFDCFFFFF7FFFFFFFFFFFFFE94
:105E1000FFFEF7FEFFFFFFDFFF9FFFFEFFFADDCC77
:105E2000C4E8E631FFDAFFD9DDD0C50CCCEBCCA954
:105E3000E5F0FEF5FFDBFF36CCA8D4C8FE93FFBB30
:105E4000FFFEFFFFFFFFFFFFFFFFFFDEFFFEFFFF85
:105E5000FFFFFFFFFFDFFFFFFFFDFFFADDF1EE5366
:105E6000FF14E529D4C6CCE8CD2AD56CCC89D4A9B9
:105E7000F62FFF95D58EFEF6FFFCFFFEFFFFFFFF1E
:105E8000FFFFFFFFFFFFFFFFFFFFFFFFFFFFFFFF22
:105E9000FFFFFFFFFFDEFFFDFFDAFFB7CCC9D466CF
:105EA000ED8AFEF2FFF7FFF8FED3E52BCCA7D4E98D
:105EB000FFF9FFDBFFFEFFFFFFDFFFFFFFFFFFFF3D
:105EC000FFFFFFFFFFFFFFBFFFDFFFFFFFDFFFFF62
:105ED000FFFEFFFDFFFADD6ACCA7FEF4FFDBFFFC4F
:105EE000FFFDFFFEFFBBFFD8E54AD4A7EE50FFFA47
:105EF000FFDEFFFFFFFFFFFFFFFFFFFFFFFFFFFFD3
:105F0000F7DFFFDDFFDDFFDDFFDCFFFCFFFCFFDB7C
:105F1000F6D5CCC7F5CCFFBBFFDFFFDFFFDFFFFF10
